S00E0000414443746573742E7333375E
S113000000100020D5070000AD3A0000AD3A000012
S1130010AD3A0000AD3A0000AD3A0000AD3A000040
S1130020AD3A0000AD3A0000AD3A0000AD3A000030
S1130030AD3A0000AD3A0000AD3A0000AD3A000020
S1130040AD3A0000AD3A0000AD3A0000AD3A000010
S1130050AD3A0000AD3A0000AD3A0000AD3A000000
S1130060AD3A0000AD3A0000AD3A0000AD3A0000F0
S1130070E1250000AD070000A53A0000AD3A0000FC
S1130080AD3A0000AD3A0000AD3A0000AD3A0000D0
S1130090AD3A000029090000AD3A0000AD3A000075
S11300A0AD3A0000F9090000D5090000AD3A00009E
S11300B0AD3A0000AD3A0000AD3A0000AD3A0000A0
S11300C0AD3A0000AD3A0000AD3A0000AD3A000090
S11300D0AD3A0000AD3A0000AD3A0000AD3A000080
S11300E0AD3A0000AD3A0000AD3A0000AD3A000070
S11300F0AD3A0000AD3A0000AD3A0000AD3A000060
S1130100AD3A0000AD3A0000AD3A0000AD3A00004F
S1130110AD3A0000AD3A0000AD3A0000AD3A00003F
S1130120AD3A0000AD3A0000AD3A0000AD3A00002F
S1130130AD3A0000AD3A0000AD3A0000AD3A00001F
S1130140013800D0FCE77047F7B501F089FE0128BB
S11301500ED1634B04205A6E4FF48023614952033D
S113016058BF614A4B6601F51041086258BF536697
S113017003F08DFC0121C62003F053FC41F28832C8
S1130180D321D22000F0AEF91E24584EE0B203F081
S113019073FC054603F088FC03F087FC21462A46DD
S11301A0306803F048FD0134A420E9B203F039FCBF
S11301B07F2CEBD10021A42003F033FC4C4802F047
S11301C033FF00F03BFA4B4800F0DEFA4FF4806056
S11301D000F094FA4FF4806055EC104B00F08EFA66
S11301E0204653EC102B294602F044FA02460B46F3
S11301F039A1D1E9000102F01FFD00223E4B064661
S11302000F4602F075FE002200284DD03A4B3046CE
S1130210394602F02FFA0022384B02F0E3FB0022A9
S1130220374B02F029FA02F09FFE0546800440F0A5
S1130230004000F0A9FA4FF4806000F05FFA002259
S113024051EC100B2F4B02F0CDFB02F065FE2A4B54
S113025000F3110400223046394602F049FEAD0491
S1130260C4F3110390B32B4343F0004000F08CFA25
S11302700127254E254CF760736903F4A073B3F589
S1130280807FF9D16D463146284603F07CFC95E821
S1130290030084E8030006202368584302F038FB77
S11302A01B4BC3E90001E6E71A4B3046394602F01E
S11302B0E1F90022114B02F095FB0022104B02F0F1
S11302C0DBF902F051FE05468004B2E743EA05007B
S11302D0CCE700BFAFF300800000000000FC9F40AB
S11302E0008000500090005000A000504C100020EE
S11302F050430000000002800000F03F0000E04096
S11303000000E03F000070C00040005A20100020B0
S1130310001000200000E83F0348044B834202D051
S1130320034B03B1184770470C1600200C1600202D
S113033000000000064B0749C91A891048BF013163
S1130340491003D0044B0BB101481847704700BF54
S11303500C1600200C1600200000000010B5064CFE
S1130360237843B9FFF7D8FF044B13B10448AFF324
S113037000800123237010BD7615002000000000CA
S11303807447000008B5054B1BB105490548AFF398
S11303900080BDE80840FFF7CDBF00BF00000000AB
S11303A00810002074470000A3F5803A704700BF8E
S11303B0174B002B08BF134B9D46FFF7F5FF002199
S11303C08B460F461348144A121A03F088FD0E4B4D
S11303D0002B00D098470D4B002B00D098470020ED
S11303E0002104000D000D48002802D00C48AFF392
S11303F0008002F0EBFD20002900FFF7A5FE02F0CB
S1130400D3FD00BF00000800000000000000000051
S113041000100020001000208C15002000000000B7
S11304200000000038B50D4B054633F810300C467B
S1130430CB40DB0704D440F2CF31094803F04BFB37
S11304401423302010FB053000F1A04000F570307B
S11304500068E04000F0010038BD00BF48430000E0
S1130460F842000038B50D4B044633F810300D4601
S1130470CB40DB0704D440F22D41094803F02BFBA9
S11304803022012302FB04F041F2100200F1A040EB
S1130490AB4000F57030835038BD00BF48430000C6
S11304A0F842000038B50D4B044633F810300D46C1
S11304B0CB40DB0704D440F2FE31094803F00BFBC8
S11304C03022012302FB04F042F2100200F1A040AA
S11304D0AB4000F57030835038BD00BF4843000086
S11304E0F8420000084B9A420BDC084B9A42CCBFFE
S11304F00A221422064B1870064B1970064B1A6018
S113050070470122F6E700BF7F1A06009F860100AC
S113051078150020771500208C150020024B01214E
S1130520187803F02FBA00BF78150020024B012180
S1130530187803F027BA00BF77150020014B18780C
S113054003F04EBA7815002010B5054C0021207830
S113055003F018FA20780021BDE8104003F061BAD6
S11305607815002010B5094CFFF7EEFF206802F063
S113057051F8FFF7DBFF206802F04CF8FFF7CEFFDD
S11305802068BDE8104002F045B800BF8C1500207B
S113059010B5054C0021207803F0F4F920780021EF
S11305A0BDE8104003F03DBA7715002070B504464D
S11305B00825164E230626D5FFF7B0FFFFF7B6FF32
S11305C0306802F027F8013DFFF7E2FF306802F0DF
S11305D021F8640015F0FF05E4B2EBD1FFF79EFFAC
S11305E0FFF7A4FF306802F015F8FFF7A7FF0446F1
S11305F0FFF7CEFF306802F00DF8FFF7A5FFB4FA5D
S113060084F0400970BDFFF79FFFD7E78C150020E9
S113061038B504460D46FFF797FF074B186801F0FD
S1130620F9FFFFF7B5FF6000C0B20DB10130C0B2F1
S1130630BDE83840FFF7BABF8C150020F0B52A4D4D
S113064093B008AC0FCD0FC40FCD0FC495E80300D1
S1130650002684E80300032701210225234C2A20D5
S1130660CDE903660291CDE9056607968DF80E7013
S113067000F098FB02214FF4B06000F0C9FD32464F
S113068020461B498DF8175001F0AEF940F6E443BB
S113069032468DF819000B930090334620461549D5
S11306A08DF8237001F0D2F94BF2B5230A9008AA11
S11306B0204605A9ADF808308DF8245001F000FA61
S11306C002AA204603A901F01BF90B4BD3F82823F7
S11306D042F00102C3F82823D3F8282342F48032DD
S11306E0C3F8282313B0F0BD604300000040005A53
S11306F0002D31018096980000C003502DE9F0438D
S11307002DED028B06460121A42083B003F089F964
S11307100024002500274FF00109DFF86880B74264
S113072014D10022164B2046294602F05BF941EC15
S1130730180B0021A42003F074F9B0EE480AF0EE7F
S1130740680A03B0BDEC028BBDE8F083C8F80C90D6
S1130750D8F8143003F4A073B3F5807FF8D1414680
S1130760684603F010FA009802F0D2F802460B46ED
S11307702046294601F080FF013704460D46CEE7A6
S11307800000503F0040005A0122064B5A60A3F576
S113079000535A68002AFCD101221865024B5A60A2
S11307A0704700BF0060005A0050005A014803F02F
S11307B069BA00BF281000200348044A0449121AE9
S11307C0921003F074B900BF400100004001000022
S11307D08C15002008B500F02FF8FFF7EDFF124B41
S11307E012498B4212D30020114B12498B4218D369
S11307F0FFF7DEFD186850F82240586840F82240A0
S1130800013298688242F5D30C33EAE70022F8E714
S11308101C6844F8220001325C68A242F8D3083311
S1130820E4E70022F8E700BF7C47000088470000A7
S113083088470000884700004FF40041134B144AD6
S113084070B59A60D3F88820124D42F47002C3F850
S11308508820114A05F5005491664FF0FF32226654
S11308604FF6DF7262660222C3F8D020BFF34F8FC7
S1130870BFF36F8F4FF44036032001F013FB0320C6
S1130880E66001F0F5FA2E6170BD00BF00ED00E0F6
S1130890000000000080004400900050014B1868E4
S11308A0704700BF94150020084B1B6F03F007032B
S11308B0022B04D0032B05D0012B05D0FEE7044BFB
S11308C018687047034BFBE70348704700800050EB
S11308D0941500209C150020002D310108B5FFF768
S11308E0E3FF054B1B6FC3F303330133B0FBF3F09A
S11308F0024B186008BD00BF008000509015002016
S11309000048704700B4C404014B1868704700BF26
S11309109C15002000487047002D3101014B1868D8
S1130920704700BF98150020184B2DE9F0411F6D4A
S11309305B6D1F4000D5FEE701260025144CDFF84F
S11309405880374218D02368C8F85060A3B1A16812
S1130950284601316268A1609847637B012B0BD163
S113096050B90C4B03EB45131A7B60F341021A7325
S11309701A7F60F341021A770135082D4FEA4606C3
S113098004F11004DDD1BDE8F08100BF0000045083
S113099050110020501000200020045070B504466F
S11309A001250B4E04B970BD94FAA4F0B0FA80F09E
S11309B005FA00F306EB001224EA03045368002B43
S11309C0F0D0117B11B191689847EBE79847E9E7BC
S11309D0D0110020074BD3F82404D3F8202403F5C6
S11309E00053104000F0553020F05020C3F820048C
S11309F0FFF7D4BF00C00350074BD3F82404D3F847
S1130A00202403F50053104000F0AA3020F0A02069
S1130A10C3F82004FFF7C2BF00C00350044BD3F84F
S1130A208420D206FBD4D3F88400C0F3811070472D
S1130A300040005038B5104B0546D3F820310C4621
S1130A4003F00303022B0BD0032B0DD0012B0FD18A
S1130A50FFF724FF052305B1286004B1236038BDE6
S1130A60FFF752FF0323F6E7FFF754FF0223F2E7F1
S1130A7001230020EFE700BF00800050F7B50027F6
S1130A80114B0197D3F88041064604F00304012C6E
S1130A900D4608D0022C12D041F2D1310B4803F09C
S1130AA01AF83C4604E0394601A8FFF7C3FF0F24B7
S1130AB00EB1019B336005B12C6003B0F0BDFFF7AC
S1130AC029FF0190F4E700BF008000508843000034
S1130AD038B51A4B0546D3F824010C4600F007003C
S1130AE0062821D8DFE800F0280410181C0C140094
S1130AF0FFF7D4FE052305B1286004B1236038BD97
S1130B00FFF7CCFE0623F6E7FFF7FEFE0323F2E72A
S1130B10FFF7FAFE0423EEE7FFF7FCFE0223EAE701
S1130B2002F0D1FF0723E6E7054840F6C87102F05A
S1130B30D2FF00231846DEE70123DCE700800050E3
S1130B408843000038B5104B0546D3F840310C46B5
S1130B5003F00303022B0BD0032B0DD0012B0FD179
S1130B6002F0B3FF092305B1286004B1236038BD46
S1130B70FFF7D4FE0823F6E702F0AAFF0B23F2E7FF
S1130B8001230020EFE700BF0080005038B5164B6A
S1130B900546D3F800020C4600F00700042819D8D3
S1130BA0DFE800F020030B0F130002F08EFF09238F
S1130BB005B1286004B1236038BDFFF7AFFE0823F8
S1130BC0F6E702F085FF0B23F2E7FFF787FE0E231B
S1130BD0800AEDE7054841F28F4102F07CFF0023D3
S1130BE01846E5E70123E3E700800050884300004E
S1130BF038B5124B0546D3F840320C4603F00303D4
S1130C00022B0BD0032B0DD0012B0FD102F05DFF73
S1130C10092305B1286004B1236038BDFFF77EFEC7
S1130C200823F6E702F054FF0B23F2E7044841F2ED
S1130C301A4102F050FF00231846EAE700800050F2
S1130C408843000038B5104B0546D3F860310C4694
S1130C5003F00303022B0BD0032B0DD0012B0FD178
S1130C6002F033FF092305B1286004B1236038BDC5
S1130C70FFF754FE0823F6E702F02AFF0B23F2E7FE
S1130C8001230020EFE700BF0080005010B40F4C98
S1130C900B46D4F8204204F00304012C0ED0022C9D
S1130CA010D008B1002101600BB100221A6040F697
S1130CB0F27107485DF8044B02F00DBF5DF8044B78
S1130CC0FFF7B8BE5DF8044BFFF73CBF008000504F
S1130CD088430000B0F5207F10B534D009D8B0F5B2
S1130CE0007F2AD003D898B1B0F5C07F10D000247B
S1130CF021E0B0F5607FFAD1154BD3F88030C3F30F
S1130D0001149B0617D5032C15D040F296210FE051
S1130D100F4B1C6F230B13F00E0FC4F303340AD0D4
S1130D20072C08D00F2C06D0032C04D040F28621C7
S1130D30084802F0D0FE601C10BD054BD3F890406B
S1130D40C4F30464F7E7024B1C6FC4F38024F2E796
S1130D5000800050884300004FF400320E4B10B561
S1130D6004469A660020FFF7B5FF604341F67132EE
S1130D700A4C0B4BA04294BF00200120D969DA63CE
S1130D809A6822F4401242EA00529A60CA0344BFAD
S1130D900022DA6310BD00BF00900050005A6202C6
S1130DA00000035070B5460904460D460ED140F2CA
S1130DB033310D4802F08FFE334604F01F047DB139
S1130DC003F580530122A2401A6070BD012E05D0A4
S1130DD0064B074A022E18BF1346EEE7054BECE715
S1130DE003F50053EEE700BF88430000688000501D
S1130DF06082005064800050002330B5802885B0A4
S1130E000446019374D02AD8002877D0A0F1200496
S1130E10412C32D8412C30D8DFE804F070732F73A2
S1130E20888888887373923FA8653F7373732F2FE4
S1130E302F2F2F2F8D57737373B2AD732F2F2F2F27
S1130E402F2F2F2F2F2F2F2F2F702F707070882F51
S1130E502F2F2F2F2F2F2F2F2F2F2F2F7070B0F5D5
S1130E60806F63D024D8B0F5007F55D00BD8B0F58F
S1130E70807F6AD0B0F5C07F40D04FF4936143487F
S1130E8002F029FE37E0B0F5607F45D0F5D8B0F523
S1130E90207F36D0B0F5407FEFD1FFF71FFD044629
S1130EA04FF42070FFF716FFB4FBF0F4640831E050
S1130EB0B0F5C06F5AD00DD8B0F5A06F3BD0B0F5E7
S1130EC0B06F3DD0B0F5906FD7D1002101A8FFF7E6
S1130ED0FFFD10E0B0F5E06F4DD0B0F5F06F4FD0EE
S1130EE0B0F5D06FC9D1002101A8FFF74FFE02E091
S1130EF0FFF7DAFC0190019805B030BDFFF7EEFC76
S1130F00F8E7FFF7EBFC04464FF42070FFF7E2FE2E
S1130F10B4FBF0F40194EEE7FFF7C6FC0546204667
S1130F20FFF7D8FEB5FBF0F50195E4E7002101A831
S1130F30FFF780FDDFE7002101A8FFF7A7FEDAE74E
S1130F40002101A8FFF79AFDD5E702934FF0E023B3
S1130F501B695B0705D5FFF7C1FC0290029B019357
S1130F60C9E703A902A8FFF7EDFDF7E7002101A8EF
S1130F70FFF7E8FDBFE7002101A8FFF739FEBAE754
S1130F80002101A8FFF75EFEB5E700BF884300001B
S1130F901FB50023B0F5807F01937FD027D8382870
S1130FA000F09C800BD82438092810D809280ED8C2
S1130FB0DFE800F06F6F6F6F0D0D670D36855228F7
S1130FC067D007D83D283AD03E2800F08C8040F204
S1130FD07D5152E08028FAD1454B1B6F03F0070383
S1130FE0013B032B47D8DFE803F044413F75B0F5DC
S1130FF0D06F64D019D8B0F5A06F6FD00AD8B0F50F
S1131000806F46D0B0F5906FE1D1002001A9FFF7C1
S11310105FFD3AE0B0F5B06F33D0B0F5C06FD6D114
S1131020002001A9FFF78EFD2FE0B0F5006FECD092
S11310300AD8B0F5E06F56D0B0F5F06FC7D10020F4
S113104001A9FFF7FFFD20E0B0F5086FBFD1284BE1
S1131050D3F8003103F00303022B35D0032B37D030
S1131060012B39D1FFF750FC032300E00523019342
S11310700BE00223FBE740F2CA411E4802F02BFDBD
S113108003E0002001A9FFF7F9FC019805B05DF821
S113109004FB002001A9FFF7CDFCF6E702934FF013
S11310A0E0231B695B0705D5FFF718FC0C230393AA
S11310B0039BDCE703A902A8FFF744FDF8E700203F
S11310C001A9FFF763FDE0E7FFF728FC0823CEE75B
S11310D002F0F9FC0723CAE70123C8E7002001A9AD
S11310E0FFF7D4FDD1E7002001A9FFF781FDCCE78C
S11310F00080005088430000B0F5207F10B55FD019
S11311000ED8B0F5007F49D003D800B3B0F5C07F46
S11311101DD040F21631BDE81040314802F0DBBC6E
S1131120B0F5607FF5D14C1E012C06D9042904D0FA
S113113040F2F7212A4802F0CEFC2A4AD2F8803045
S113114023F0300343EA0413C2F8803010BD4C1E70
S1131150012C0AD9102903D8234BCB40DB0704D434
S113116040F2C9211E4802F0B6FC02F0C5FC02F0B0
S1131170D1FC1C4A136F23F4704343EA043313670E
S1131180FFF7ACFB0446FFF749FCC0F1020120461F
S113119002F0BAFCBDE8104000F028B84C1E1F2C29
S11311A004D940F20A310E4802F095FC0D4AD2F8F7
S11311B0903023F0F85343EA0463C2F89030C5E753
S11311C04C1E012C04D94FF44471054802F083FCF1
S11311D0044A136F23F4806343EA84231367B5E757
S11311E088430000008000501001010008B54FF44E
S11311F0C070FFF701FEBDE808400449884294BF6F
S1131200012102214FF42070FFF776BF80F0FA022B
S1131210B0F5807F70B50C4600F006812BD83828D5
S113122000F0BE8110D82438092816D8092814D80B
S1131230DFE810F0DD00DD00DD00DD001300130049
S1131240C800130046007E01522800F0D08007D861
S11312503D2851D03E2800F0BC8140F64C111DE1E0
S11312608028FAD18B1E052B00F2A180DFE803F061
S11312709C8D9FA79F66B0F5D06F00F0598130D840
S1131280B0F5A06F00F08C8113D8B0F5806F00F03A
S1131290AE80B0F5906FE0D1013C062C00F23F81A6
S11312A0DFE814F04201350144013B012B0139010F
S11312B03701B0F5B06F00F08580B0F5C06FCCD1C8
S11312C0013C0A2C00F2FB80DFE814F0FE00F90078
S11312D0F900F900F900F900F9000001ED00ED0052
S11312E0F700B0F5006FD7D017D8B0F5E06F00F075
S11312F07081B0F5F06FB0D1013C0A2C00F2F4809B
S1131300DFE814F0F700F200F200F200F200F2005D
S1131310F200F900E600E600F000B0F5086F9CD199
S11313204C1E072C00F23381DFE814F03601310142
S113133025013101310131012F0138010025042635
S11313400121022000F0BEF902F0D6FB02F0E2FB1C
S1131350A74A136F23F0070333431367FFF7BEFA5B
S11313600646FFF75BFBC0F10201304602F0CCFBFE
S11313700121002000F0FAF9FFF738FF25B9032C0A
S113138002D101229B4B9A6270BD4FF400229A4B0A
S11313900E465A66012203F540539D6A03F58053B5
S11313A0C5F340059A62CBE700250126C8E700256E
S11313B04FF4C761914802F08EFB2E46C0E700252A
S11313C00226BDE7022C07D00F2C0ED040F281611B
S11313D08A4802F080FB0024854AD2F8803123F049
S11313E003032343C2F88031CEE70124F4E7013C30
S11313F0042C10D8DFE804F0140D160F03000122AA
S11314007B49D1F8203123F003031343C1F8203181
S1131410BAE70322F4E74FF4D861784802F05BFBA3
S11314200022EDE70222EBE7A1F10804082C33D8EF
S1131430DFE804F0050532051C32323205004FF4B2
S113144080326B4B6E49586E03F580535A660B6AB3
S113145043F001030B62C1035CBF6A4B5A664FF051
S1131460E022136923F0040313618DE74FF4803203
S11314705F4B6349586E03F580535A660B6A23F039
S113148001030B62C3035CBF5E4B5A664FF0E0225C
S1131490136943F00403E7E74FF4DD61BDE87040EE
S11314A0564802F018BB01225149D1F8403123F0CB
S11314B003031343C1F8403166E70322F4E74FF412
S11314C0E1614E4802F007FB0022EDE70222EBE760
S11314D001224749D1F8603123F003031343C1F8D3
S11314E0603151E70322F4E740F22A71434802F0E5
S11314F0F2FA0022EDE70222EBE701233C49D1F89E
S1131500242122F007021343C1F824313CE70323CA
S1131510F4E70423F2E70523F0E70623EEE740F2BD
S11315205371364802F0D7FA0023E7E70223E5E7D0
S1131530013C0D2C16D8DFE804F01A151515151505
S1131540151C07071115151301222949D1F800327A
S113155023F007031343C1F8003215E70322F4E72D
S11315600422F2E740F27771244802F0B4FA002230
S1131570EBE70222E9E701221D49D1F8003123F00B
S113158003031343C1F80031FEE60322F4E740F2FB
S1131590B7711A4802F09FFA0022EDE70222EBE746
S11315A00F2C12D0102C12D0012C04D040F60F01B5
S11315B0124802F090FA00220D49D1F8203223F0AB
S11315C003031343C1F82032DEE60122F4E70222CA
S11315D0F2E7083C032C19D80B4B195D044AD2F8E6
S11315E0403223F003030B43C2F84032CCE600BF81
S11315F00080005000E0005000900050884300003C
S113160000C0075000A00050D643000040F69601E9
S1131610024802F060FA0021E0E700BF88430000BE
S113162010B5224B70B94FF40031214A186051664D
S113163002F598325268012A03D11E4AD2F80021D9
S11316401A6010BD1B68002BFBD01B4A5268012A8C
S1131650F7D0184A8020C2F80031FFF799FC05281A
S11316601FD14FF4C070FFF735FB0128044604D1A5
S113167002214FF4C070FFF73FFD07220F4B1A61A0
S11316800122A3F580535A600B4A1369DB07FCD58A
S1131690012CD6D12146BDE810404FF4C070FFF7AD
S11316A02BBD0122064B5A60CBE700BFD0130020AC
S11316B0009000500080005000C0015000E0015034
S11316C000D00150F8B50446244BD3F88420D0064A
S11316D0FBD4D3F88430C3F381139C423CD0FFF78E
S11316E0E3F8012C05460BD11D4B984204D940F276
S11316F0B7711C4802F0EFF90121284602F004FA00
S113170002F0EAF94FF00072174B07465A6620467A
S113171002F008FA4FF48063104E621E9340336760
S1131720736E9A0103D4D6F884309B060AD53846E2
S113173002F0D6F9022C0FD12846BDE8F84000216A
S113174002F0E2B9D6F884309906E9D540F2C571C1
S1131750044802F0C0F9E3E7F8BD00BF00400050C0
S1131760005A6202DA4300000060005010B50C46D3
S113177008B9FFF799F8074B21461B783BB1064B94
S1131780984204D80120BDE81040FFF79BBF022017
S1131790F9E700BF79150020005A6202032838B522
S11317A004460D4605D80B4B33F81030CB40DB070D
S11317B004D440F22D41084802F08DF9302201236F
S11317C0544341F2100204F1A044AB4004F57034D8
S11317D0A35038BD78440000F8420000032838B50F
S11317E004460D4605D80B4B33F81030CB40DB07CD
S11317F004D440F2FE31084802F06DF9302201238E
S1131800544342F2100204F1A044AB4004F5703496
S1131810A35038BD78440000F84200000328F8B50E
S113182004460D4616461F4605D81C4B33F81030A7
S1131830CB40DB0704D44FF4B071194802F04BF9E4
S113184026B129462046CFB1FFF7A8FF04EB440395
S1131850072D4FF00F014FEA031312D8A80006FA20
S113186000F281400F48184402F05DF9AEB92946F0
S1131870204677B1BDE8F840FFF790BFFFF7AEFF11
S1131880E4E7A5F10800800006FA00F2814006486A
S1131890E9E7BDE8F840FFF7A1BFF8BD78440000D0
S11318A02844000004C003500CC0035038B5124B48
S11318B0044698420D4604D04FF427710F4802F0B5
S11318C00AF9012204F5805361685A60EB786A785A
S11318D05B0443EA02232A781343AA78120402F42D
S11318E080321343C4F89830CB0704D42046BDE8B3
S11318F0384002F027B938BD0040005A8044000047
S11319001E4B70B5984204460E46154604D04FF45B
S113191019711B4802F0DFF8204602F013F93378FE
S1131920727803F0070343EAC203F278294643EAD4
S11319300223B2782046120102F0300213432367D7
S1131940E26A337922F48B321B0222F4807203F4AC
S1131950E0631343B27943EA02437279120302F457
S113196080521343E362FFF7A1FF012204F5805381
S11319705A60F37903B1E26070BD00BF0040005AC1
S113198080440000144B10B598420C4604D040F239
S11319906F31124802F09FF874B92A20FFF72CFA2D
S11319A00446B0B10E4B984206D90B4B9B68C3F367
S11319B002730133B0FBF3F40A4B04F5742404F20C
S11319C03F24B4FBF3F4601E7F2828BF7F20C0B2FD
S11319D010BD0124F0E700BF0040005A804400001D
S11319E0005A620240420F0038B5154B0D4698422A
S11319F0144604D040F2AA31124802F06CF835B90A
S1131A0040F2AB310F4802F066F8B4B1FFDE0E4B82
S1131A109D4228BF1D461CB92A20FFF7EDF9044654
S1131A202C44013CB4FBF5F0AC4228BF00F1FF307C
S1131A30032828BF0320C0B238BD2546ECE700BF09
S1131A400040005A80440000005A6202F8B51F4664
S1131A50174B0E469842144604D04FF4797115483A
S1131A6002F039F826B940F2E531124802F033F8B1
S1131A70114D124B002F08BF1D46B54228BF3546F5
S1131A801CB92A20FFF7B8F904469DF8183040F233
S1131A90FF300133B4FBF3F46B1E1C44B4FBF5F3C9
S1131AA0AC4228BF03F1FF33984228BF1846F8BD63
S1131AB00040005A80440000404B4C00809698003F
S1131AC02DE9F04F2DED048BD04B054698420E4680
S1131AD0144685B003D0F121CD4801F0FCFFDFF8B6
S1131AE05883002241462846FFF77EFF77798742D4
S1131AF038BF0746284602F025F83079FFB250B9BE
S1131B002A20FFF779F94045014628BFB0FBF7F1D9
S1131B102846FFF737FFF3783A071B0102F0E0424B
S1131B2003F0300313430004327800F4FE0003434F
S1131B300AB143F0020372780AB143F00403B278A5
S1131B400AB143F00803AB60F38832892B617389CF
S1131B5043EA02432B62AD4B9D4200F054810123C2
S1131B6005F580556B6005B0BDEC048BBDE8F08FC6
S1131B70DCF88021BAF1000F0CD11FFA82FBDFEDF3
S1131B80A57A1CE0DCF880214FEA124BBAF1000F71
S1131B9000F0078140F2F1119D4801F09CFF78E0CC
S1131BA0DCF88421BAF1000FF4D1DCF88C311FFA8F
S1131BB082FB1B145B0007EE903AF8EEE77A01F122
S1131BC0B44101F580418A6C0121C2F3820202F121
S1131BD0010C01FA0CF107EE101A2BF4C0434FEA82
S1131BE0834A1BF4004FB8EEC79AF6EE008A8A4B7C
S1131BF018BF4AF0004A002A40F0D780D3F88C116D
S1131C000BB208EE103AB8EEC88A38EE278A0028DC
S1131C1040F0E28003A800F011F9DFED807A9FED37
S1131C20807A27EE888AC7EE097A9FED7E7A67EE7E
S1131C30877AB1EE007ABAF1004F48EE077A0BD0FA
S1131C40DFED796A07EE10BA37EEA66ABAEEE87AE3
S1131C50F0EE667A57EE067AF5EEC07AF1EE10FAF7
S1131C60CBBFF1EE677A78EEE78A77EEE87AFDEE9D
S1131C70E87AC8BFFDEEE77A17EE902AB2F5003F86
S1131C80C0F2B7806FEA5A436FEA43435F493201B7
S1131C908B50360106F1B446C8F3090306F58046B5
S1131CA0736009F101091434B9F1020F3FF457AF1D
S1131CB0002294F800A0554E5C485D49D4F8088091
S1131CC0924518BF0146534630460097FFF7BEFEC3
S1131CD006EB0916B26C0AF0030C22F0435222F40C
S1131CE01D1222F4405222F01F024CEA020C6278C8
S1131CF01FFA88F8920002F01C024CEA020CA27847
S1131D00804538BF80461203E07802F4E0424CEA92
S1131D1002024FEA004C0CF4E02C42EA0C0294F864
S1131D2010C04FEA09114FEA4C5C0CF4600C42EA13
S1131D300C0294F804C04FEA0C7C0CF0405C42EABC
S1131D400C02B264B26CDFF8D0C0C2F30232013AC2
S1131D5009F10506042A1BD80FF2040E5EF822F0DE
S1131D60711B0000711B0000851B0000A11B0000FB
S1131D70751D0000DCF88421BAF1000F7FF40AAF6E
S1131D80DCF88C314FEA124B1B1403EB430312E7CC
S1131D90DCF880211FFA82FBBAF1000F3FF4EFAEAA
S1131DA0F8E6DCF88C311B1405E7D3F8901169EEE2
S1131DB0286A09B207EE101AB8EEC77AD3F8881168
S1131DC077EE677A0BB208EE103A87EEA67AB8EE91
S1131DD0C88A38EE078A1AE7D4ED037ADFED156A6C
S1131DE0F8EE677A87EEA67AF7EE046AC6EE877A8B
S1131DF015E712F5003FAABFC2F311024AF40033FB
S1131E0042EA0A0342E74FF000094DE70040005A56
S1131E1080440000000000000080E00F3D3B843F50
S1131E20000080430000204400000049404B4C0067
S1131E308096980000007A44005A62024FF480327F
S1131E40064B5A6603F5E6235B69C3F38512827079
S1131E5003F03F021B0B4270037070470090005068
S1131E60024B1868C0F30740704700BF0080E00FC2
S1131E70402810B5044608D801236109074A04F034
S1131E801F04A34042F8213010BD4FF48A71044866
S1131E9001F021FE002CF7DBEEE700BF00E100E0DB
S1131EA0CF440000002808DB01224309034900F065
S1131EB01F008240603341F82320704700E100E0B6
S1131EC010B5044601F008FE024B1C6001F008FE48
S1131ED0002010BDD413002010B501F0FDFD034B0C
S1131EE01C6801F0FDFD204610BD00BFD413002086
S1131EF010B50020144601F053FE022804D018B196
S1131F00C321024801F0E7FD204610BD474500000B
S1131F1090F8383070B50446E3B9036A23B94FF436
S1131F20D2710D4801F0D7FD00212046236A98475D
S1131F30012384F8383094F83B6001F0CDFD054668
S1131F400021304600F08EF8284601F0C9FD022336
S1131F5084F83C3070BD00BFB44500000346054A18
S1131F600549106803448B428CBF4FF0FF30136067
S1131F70704700BFA015002000800020054B1A7890
S1131F802AB95B78002B0CBF032002207047012084
S1131F90704700BF7F1500200329F8B505460E469B
S1131FA007D8174B5C5C032D19D8DFE805F0090F3F
S1131FB0121540F26F31134801F08DFD0024F2E751
S1131FC044F00204104B1F687FB9F8BD44F00804C4
S1131FD0F8E744F02004F5E744F08004F2E74FF416
S1131FE06171084801F077FDECE77B681A681442D8
S1131FF003D0314628465B6898473F68E4E700BF52
S11320007F46000017460000DC13002038B5104D51
S11320102B78ABB10F4C23781BB100F0BFF8002331
S11320202370002001F083FE0B4C50B100F008F93E
S11320300023012120782B70FFF7AEFF01232370CA
S113204038BD0122054B1A702278054B1A70F7E748
S11320507C1500207B150020811500207D150020B3
S11320607E1500202DE9F843441EE3B2012B0E46F1
S113207004D940F2C711354801F02DFD344D2B5DD4
S1132080FF2B4AD1002E50D04FF4E5712F4801F0B8
S113209022FD2B5D002B4CD02E4F013339782B556C
S11320A0012944D9FFF76AFF0128044646D801F004
S11320B013FDDFF8AC80054698F8003013B3264EC4
S11320C033781BB901223270244A1370DFF89490DC
S11320D099F8003023B100F061F8002389F800304A
S11320E0284601F0FDFC012001F021FE01F0F4FC82
S11320F0337805461BB100F0A3F8002333700023A6
S113210088F80030284601F0EBFC3878A0420ED065
S11321102146FFF741FF3C7009E063B94EB94FF423
S1132120E6710A4801F0D7FC2B5D013B2B55BDE855
S1132130F8832B5DB0E7002EF7D0ADE70329E4D197
S11321400228E2D101F0F5FDDFE700BF17460000E9
S11321507F150020811500207A1500207D150020B0
S11321607C1500207B15002038B501F0B5FC094B27
S113217005461B78012B04D801F0B2FC002420464C
S113218038BD054B1C6800F08FF80444284601F064
S1132190A7FCF4E781150020D8130020F8B51F4BE5
S11321A01B78002B39D01E4C2378B3B91D4B9A6D84
S11321B0D10302D5DA6D92072FD49B6DDB072CD4A3
S11321C001F0B8FD184B194A1860136F23F0070388
S11321D043F003031367FEF781FB01F0ABFD124BE1
S11321E0134D1B68134EC01A2B78134F56F8232037
S11321F046F82300111A3A681048521A0A213A6024
S11322000932B2FBF1F20133DBB20260B3FBF1F24B
S113221001FB12332B7000232370F8BD84150020BA
S11322208315002000C000501014002000800050CE
S113223082150020E8130020E4130020E01300209E
S113224008B501F06CFC124B12491A6F096822F0B0
S113225007020A431A671049D3F82021096822F0BB
S113226003020A43C3F820210C49D3F82421096846
S113227022F007020A43C3F82421094B1B7813B147
S11322800122084B9A62BDE80840FEF727BB00BF55
S11322900080005018140020201400201C1400207A
S11322A08415002000E00050054B187818B1054B48
S11322B0186800EBD000044B1B681844704700BF3B
S11322C084150020E01300201414002038B501F018
S11322D03DFD0025084B094C1A682368C31A2AB12E
S11322E023B15169994203D3C91A5161206038BDA1
S11322F055615B1A9268F2E7281400202414002028
S1132300C38870B504460D463BB9FFF72DFF8542DF
S1132310064602D201F000FD35460E4965610B68A0
S11323208BB90C60A3600DE0AD1A9A68184665611C
S11323306AB113465A69AA42F6D930B18460521B75
S1132340A3605A6170BD0020F4E70C60F7E79C605D
S1132350A260F7E72814002038B5134D2B685B6999
S113236093B1124A022014681C4401F0F6FC204682
S113237000F0E4F800230E492A680B70D088800727
S113238009D501230B7038BD022001F0E6FC0220C0
S113239000F01EF9EEE79268002AF4D05069034475
S11323A0012BEBD9EFE700BF2814002024140020F0
S11323B08615002000220C490B687BB183420AD1A8
S11323C083687AB1936083681BB15A6941690A448E
S11323D05A61002070471A469B68EEE70028EFD048
S11323E0022070470B60EEE728140020C2072DE995
S11323F0F04704460BD54D4A138801339BB2138032
S1132400FFF764FF4A4B1B680BB1FFF7A5FFA30757
S113241040F18A8001F067FB4FF0000905464E4603
S1132420FFF754FFC846424F3C680CB163698BB157
S11324300022404B012E1A7003D119F0020F18BF6D
S11324401E70002C6CD0FFF787FF2846BDE8F047CC
S113245001F04FBB23465A693AB91A79217991425E
S113246088BF1C469B68002BF5D1284601F041FB30
S11324702569DDB101F06AFCA269A0EB02094FEA0B
S1132480E9734D4578EB030311DA23691344A3611F
S1132490E368B4F80690013613B1204621689847E2
S11324A001F021FB0546FFF711FFBDE7A94601F046
S11324B01AFB82462046FFF77DFF504601F019FBC8
S11324C02369002BE4D0B5EB09054FEAE97363EB0C
S11324D04303002B04DA40F23451174801F0FBFAAD
S11324E0A38B33B1E28B13449BB2B3F57A7F0FD243
S11324F0E38301F0F8FA814629462046FFF700FFFE
S1132500A369226948461344A36101F0F2FABFE7C4
S1132510A3F57A73E383A369013D013BA361E8E773
S1132520022000F03DF890E7BDE8F0877415002024
S113253028140020851500208346000010B50446A9
S113254001F0CAFA4FF0B042936A1907FCD4136A37
S1132550116C5269520604D4CA1A032A01D88B4258
S11325600ED1E21A022A98BFDC1CB4F1FF3F38BF37
S1132570013C4FF0B0431C649A6942F040029A61F6
S113258001F0AEFA054A13783BB14FF0B041CB6B82
S113259043F00203CB630023137010BD0016002028
S11325A0820700F001030AD50121084A43F04003E1
S11325B011704FF0B041CA6B22F00302CA634FF0AE
S11325C0B0418A6922EA03038B6170470016002038
S11325D0830742BF4022014B5A61704700100058E4
S11325E010B501F080FA4FF0B04304465B695A0617
S11325F0074A03F0010003F0510348BF40F0020012
S11326005361FFF7F3FE2046BDE8104001F071BAB4
S11326100020005810B50446FEF760F94FF47A72B2
S11326209042B0FBF2F105D23621BDE810400C48CF
S113263001F051BA0B4BB3FBF1F30B49884201D9BA
S11326403C21F2E702FB04F0B0FBF3F0022806D9C8
S1132650BDE810400323B0FBF3F0FDF771BD10BDDE
S1132660E546000040420F00E7CD9A3B81F000416F
S113267002E000BF83F0004330B54FEA41044FEA63
S1132680430594EA050F08BF90EA020F1FBF54EAFE
S1132690000C55EA020C7FEA645C7FEA655C00F09A
S11326A0E2804FEA5454D4EB5555B8BF6D420CDD6B
S11326B02C4480EA020281EA030382EA000083EAEE
S11326C0010180EA020281EA0303362D88BF30BD8E
S11326D011F0004F4FEA01314FF4801C4CEA1131E4
S11326E002D0404261EB410113F0004F4FEA033343
S11326F04CEA133302D0524263EB430394EA050FCE
S113270000F0A780A4F10104D5F1200E0DDB02FA3C
S11327100EFC22FA05F2801841F1000103FA0EF2D0
S1132720801843FA05F359410EE0A5F120050EF196
S1132730200E012A03FA0EFC28BF4CF0020C43FAC7
S113274005F3C01851EBE37101F0004507D54FF0D4
S1132750000EDCF1000C7EEB00006EEB0101B1F524
S1132760801F1BD3B1F5001F0CD349085FEA30006A
S11327704FEA3C0C04F101044FEA445212F5800F75
S113278080F09A80BCF1004F08BF5FEA500C50F112
S1132790000041EB045141EA050130BD5FEA4C0CF5
S11327A0404141EB0101013C28BFB1F5801FE9D252
S11327B091F0000F04BF01460020B1FA81F308BF75
S11327C02033A3F10B03B3F120020CDA0C3208DD41
S11327D002F1140CC2F10C0201FA0CF021FA02F11C
S11327E00CE002F11402D8BFC2F1200C01FA02F18C
S11327F020FA0CFCDCBF41EA0C019040E41AA2BFB1
S113280001EB0451294330BD6FEA04041F3C1CDA78
S11328100C340EDC04F11404C4F1200220FA04F098
S113282001FA02F340EA030021FA04F345EA030142
S113283030BDC4F10C04C4F1200220FA02F001FA04
S113284004F340EA0300294630BD21FA04F0294686
S113285030BD94F0000F83F4801306BF81F480111F
S11328600134013D4EE77FEA645C18BF7FEA655C92
S113287029D094EA050F08BF90EA020F05D054EA64
S1132880000C04BF1946104630BD91EA030F1EBF69
S11328900021002030BD5FEA545C05D1400049416D
S11328A028BF41F0004130BD14F580043CBF01F560
S11328B0801130BD01F0004545F0FE4141F4700146
S11328C04FF0000030BD7FEA645C1ABF1946104621
S11328D07FEA655C1CBF0B46024650EA013406BF22
S11328E052EA033591EA030F41F4002130BD00BFE1
S11328F090F0000F04BF0021704730B54FF480649E
S113290004F132044FF000054FF0000150E700BF1E
S113291090F0000F04BF0021704730B54FF480647D
S113292004F1320410F0004548BF40424FF000016A
S11329303EE700BF42004FEAE2014FEA31014FEAAD
S113294002701FBF12F07F4393F07F4F81F06051FC
S1132950704732F07F4208BF704793F07F4F04BF47
S113296041F40021704730B54FF4607401F0004524
S113297021F000411CE700BF50EA010208BF704784
S113298030B54FF000050AE050EA010208BF704775
S113299030B511F0004502D5404261EB41014FF4DE
S11329A0806404F132045FEA915C3FF4D8AE4FF0E6
S11329B003025FEADC0C18BF03325FEADC0C18BFC9
S11329C0033202EBDC02C2F1200300FA03FC20FA1A
S11329D002F001FA03FE40EA0E0021FA02F1144467
S11329E0BDE600BF70B54FF0FF0C4CF4E06C1CEA80
S11329F011541DBF1CEA135594EA0C0F95EA0C0FF1
S1132A0000F0DEF82C4481EA030621EA4C5123EA63
S1132A104C5350EA013518BF52EA033541F4801192
S1132A2043F4801338D0A0FB02CE4FF00005E1FB45
S1132A3002E506F00042E0FB03E54FF00006E1FB8F
S1132A4003569CF0000F18BF4EF0010EA4F1FF04D2
S1132A50B6F5007F64F5407404D25FEA4E0E6D4112
S1132A6046EB060642EAC62141EA55514FEAC52023
S1132A7040EA5E504FEACE2EB4F1FD0C88BFBCF59F
S1132A80E06F1ED8BEF1004F08BF5FEA500E50F150
S1132A90000041EB045170BD06F0004646EA010116
S1132AA040EA020081EA0301B4EB5C04C2BFD4EB48
S1132AB00C0541EA045170BD41F480114FF0000E41
S1132AC0013C00F3AB8014F1360FDEBF002001F0AF
S1132AD0004170BDC4F10004203C35DA0C341BDC29
S1132AE004F11404C4F1200500FA05F320FA04F0FB
S1132AF001FA05F240EA020001F0004221F000412F
S1132B0010EBD37021FA04F642EB06015EEA430EA1
S1132B1008BF20EAD37070BDC4F10C04C4F12005D1
S1132B2000FA04F320FA05F001FA04F240EA020084
S1132B3001F0004110EBD37041F100015EEA430E55
S1132B4008BF20EAD37070BDC4F1200500FA05F275
S1132B504EEA020E20FA04F301FA05F243EA0203F4
S1132B6021FA04F001F0004121FA04F220EA020003
S1132B7000EBD3705EEA430E08BF20EAD37070BD49
S1132B8094F0000F0FD101F00046400041EB010129
S1132B9011F4801F08BF013CF7D041EA060195F00B
S1132BA0000F18BF704703F00046520043EB0303C5
S1132BB013F4801F08BF013DF7D043EA06037047B2
S1132BC094EA0C0F0CEA135518BF95EA0C0F0CD0BD
S1132BD050EA410618BF52EA4306D1D181EA030103
S1132BE001F000414FF0000070BD50EA410606BFFD
S1132BF01046194652EA430619D094EA0C0F02D142
S1132C0050EA013613D195EA0C0F05D152EA033686
S1132C101CBF104619460AD181EA030101F00041A4
S1132C2041F0FE4141F470014FF0000070BD41F0ED
S1132C30FE4141F4780170BD70B54FF0FF0C4CF4C7
S1132C40E06C1CEA11541DBF1CEA135594EA0C0FE6
S1132C5095EA0C0F00F0A7F8A4EB050481EA030E33
S1132C6052EA03354FEA013100F088804FEA03331A
S1132C704FF0805545EA131343EA12634FEA0222E8
S1132C8045EA111545EA10654FEA00260EF00041A9
S1132C909D4208BF964244F1FD0404F5407402D2FB
S1132CA05B084FEA3202B61A65EB03055B084FEA8C
S1132CB032024FF480104FF4002CB6EB020E75EB89
S1132CC0030E22BFB61A754640EA0C005B084FEAB1
S1132CD03202B6EB020E75EB030E22BFB61A75462E
S1132CE040EA5C005B084FEA3202B6EB020E75EB79
S1132CF0030E22BFB61A754640EA9C005B084FEAF1
S1132D003202B6EB020E75EB030E22BFB61A7546FD
S1132D1040EADC0055EA060E18D04FEA051545EAEC
S1132D2016754FEA06164FEAC30343EA52734FEA95
S1132D30C2025FEA1C1CC0D111F4801F0BD141EA0E
S1132D4000014FF000004FF0004CB6E711F4801F73
S1132D5004BF01430020B4F1FD0C88BFBCF5E06F53
S1132D603FF6AFAEB5EB030C04BFB6EB020C5FEA63
S1132D70500C50F1000041EB045170BD0EF0004EB8
S1132D804EEA113114EB5C04C2BFD4EB0C0541EAEA
S1132D90045170BD41F480114FF0000E013C90E6E7
S1132DA045EA060E8DE60CEA135594EA0C0F08BFAB
S1132DB095EA0C0F3FF43BAF94EA0C0F0AD150EAAA
S1132DC001347FF434AF95EA0C0F7FF425AF10463D
S1132DD019462CE795EA0C0F06D152EA03353FF465
S1132DE0FDAE1046194622E750EA410618BF52EAE2
S1132DF043067FF4C5AE50EA41047FF40DAF52EAB6
S1132E0043057FF4EBAE12E74FF0FF3C06E000BF52
S1132E104FF0010C02E000BF4FF0010C4DF804CD5F
S1132E204FEA410C7FEA6C5C4FEA430C18BF7FEA1F
S1132E306C5C1BD001B050EA410C0CBF52EA430C4D
S1132E4091EA030F02BF90EA020F0020704710F1CD
S1132E50000F91EA030F58BF994208BF90422CBF5C
S1132E60D8176FEAE37040F0010070474FEA410C55
S1132E707FEA6C5C02D150EA013C07D14FEA430C73
S1132E807FEA6C5CD6D152EA033CD3D05DF8040BE4
S1132E90704700BF8446104662468C461946634616
S1132EA000E000BF01B5FFF7B7FF002848BF10F1ED
S1132EB0000F01BD4DF808EDFFF7F4FF0CBF012032
S1132EC000205DF808FB00BF4DF808EDFFF7EAFFAE
S1132ED034BF012000205DF808FB00BF4DF808ED69
S1132EE0FFF7E0FF94BF012000205DF808FB00BF5E
S1132EF04DF808EDFFF7CEFF94BF012000205DF8E8
S1132F0008FB00BF4DF808EDFFF7C4FF34BF0120F4
S1132F1000205DF808FB00BF4FEA410212F50012E1
S1132F2015D211D56FF47873B3EB625212D94FEA0C
S1132F30C12343F0004343EA505311F0004F23FAF6
S1132F4002F018BF404270474FF00000704750EA4B
S1132F50013005D111F0004008BF6FF00040704708
S1132F604FF00000704700BF4A0011D212F5001262
S1132F7011D20DD56FF47873B3EB62520ED44FEACD
S1132F80C12343F0004343EA505323FA02F070474D
S1132F904FF00000704750EA013002D14FF0FF308B
S1132FA070474FF00000704708B5064B044613B154
S1132FB00021AFF30080044B1B6803B198472046FF
S1132FC000F048FE000000006415002070B50D4DAF
S1132FD000260D4C641BA410A64209D10B4D0026FB
S1132FE00B4C01F07DF9641BA410A64205D170BD01
S1132FF055F8043B01369847EEE755F8043B013693
S11330009847F2E704160020041600200416002056
S1133010081600200B46034902460868816800F040
S11330200BB900BFA4150020024B0146186800F03C
S1133030A0BE00BFA4150020002310B50446836081
S1133040818119464366C28108228361C0E9003345
S1133050C0E904335C3000F042FF0D4B246263622C
S11330600C4BA3620C4BE3620C4B23630C4B9C4252
S113307006D003F16802944202D0D0339C4205D1B9
S113308004F15800BDE8104000F031BF10BD00BF8E
S11330901D3E00003F3E0000773E00009B3E0000C6
S11330A02C140020024A0349034800F0FABE00BF72
S11330B0F41500206F420000A815002041680C4B55
S11330C0994210B5044601D001F0D1F8A168094B2A
S11330D0994202D0204601F0CAF8E168064B9942B1
S11330E004D02046BDE8104001F0C1B810BD00BFB7
S11330F02C14002094140020FC14002010B50B4B59
S113310004210B4C0B4A20461A600022FFF794FF5F
S113311004F1680001220921FFF78EFF04F1D000B9
S113312002221221BDE81040FFF786BF641500207B
S11331302C140020A5300000014800F0D9BE00BFC7
S113314088150020014800F0D4BE00BF8815002077
S113315010B50446FFF7F0FF236A1BB1BDE8104029
S1133160FFF7F0BF044B2362044B1B68002BF5D11F
S1133170FFF7C4FFF2E700BFBD3000006415002074
S113318038B50446064D0846114600222A601A4600
S1133190FEF7AEFE431C02D12B6803B1236038BD99
S11331A06815002038B50546002941D051F8043C83
S11331B00C1F002BB8BFE41800F0C8FB1D4A1368AD
S11331C033B9636014602846BDE8384000F0C4BBDE
S11331D0A34208D9206821188B4201BF19685B6893
S11331E009182160EDE71A465B680BB1A342FAD9CE
S11331F011685018A0420BD1206801445018116086
S11332008342E0D118685B68084453601060DAE7D1
S113321002D90C232B60D6E7206821188B4202BF09
S113322019685B680918636008BF21605460CAE7C5
S113323038BD00BF701500202DE9F04F0D469DB03C
S113324014469846064618B1036A0BB9FFF780FF87
S11332506B6ED90705D4AB899A0502D4A86D00F02A
S113326047FEAB891B0701D52B699BB9294630461C
S113327000F0FAF870B16B6EDC0704D54FF0FF3044
S11332801DB0BDE8F08FAB899805F7D4A86D00F0A8
S113329030FEF3E70023CDF80C804FF00109DFF88E
S11332A0B481099320238DF8293030238DF82A30F6
S11332B023469A4613F8012B0AB1252AF9D1BAEB11
S11332C0040B0BD05B4622462946304600F08AFEAA
S11332D0013000F0A780099A5A4409929AF8003004
S11332E0002B00F09F8000234FF0FF320AF1010A07
S11332F0049307938DF853301A93CDE9052354466C
S11333000522544814F8011B00F0D9FF049AD8B9D7
S1133310D10644BF20238DF85330130744BF2B2319
S11333208DF853309AF800302A2B15D0079A54465A
S113333000204FF00A0C214611F8013B303B092BC9
S11333404BD9B0B1079214E0A0EB0803A24609FAE6
S113335003F313430493D2E7039B191D1B68002B4B
S11333600391BBBF5B4242F0020207930793B8BFCD
S1133370049223782E2B0AD163782A2B32D1039B13
S113338002341A1D1B6843EAE37303920593DFF8C2
S1133390D4A003222178504600F091FF38B1A0EB6D
S11333A00A004022049B013482401343049314F81E
S11333B0011B062228488DF8281000F080FF002801
S11333C03FD0264B1BBB039B073323F00703083373
S11333D00393099B3B4409936AE70CFB02320C46B6
S11333E00120A8E7002301344FF00A0C1946059385
S11333F0204610F8012B303A092A03D9002BC6D0F5
S11334000591C4E70CFB012104460123F0E703AB5B
S11334102A4604A930460093114BAFF300800746B7
S1133420781CD6D16B6ED90705D4AB899A0502D422
S1133430A86D00F05EFDAB895B063FF51FAF0998F0
S11334401EE703AB2A4604A930460093044B00F060
S113345061F8E4E73F47000049470000000000002E
S1133460E53F00004547000038B5294B05460C46AA
S1133470186818B1036A0BB9FFF76AFEB4F90C3087
S1133480190722D4DA0607D409222A6043F040033C
S11334904FF0FF30A38133E0580712D5616B41B17F
S11334A004F14403994202D02846FFF77BFE00232F
S11334B06363A38923F02403A38100236360236946
S11334C02360A38943F00803A38123694BB9A3892B
S11334D003F42073B3F5007F03D02146284600F09F
S11334E02EFDB4F90C3013F001020AD00022A260C0
S11334F062695242A261226942B913F08000C5D1C7
S113350038BD990758BF6269A260F4E70020F7E765
S1133510A41500202DE9FF470F7E914680460C46F6
S1133520782F9A460C9E01F1430207D8622F0AD8DD
S1133530002F00F0DD80582F00F0C38004F1420614
S113354084F842703AE0A7F16303152BF6D801A181
S113355051F823F0AD350000C13500003D350000C1
S11335603D3500003D3500003D350000C13500000B
S11335703D3500003D3500003D3500003D3500007F
S1133580D73600004F3600008F3600003D3500006E
S11335903D350000F93600003D3500004F3600008F
S11335A03D3500003D3500009736000033681A1D94
S11335B01B68326004F1420684F842300123A8E01B
S11335C031682368081D30601E0601D50D6803E0CC
S11335D05D06FBD5B1F90050002D616878DA2D2025
S11335E00029A16084F843002DDA6D425D480A2366
S11335F01646B5FBF3F103FB1157C75D06F8017DD1
S11336002F460D46BB42F4D9082B0BD12368DF07A4
S113361008D5236961689942DEBF302306F8013C6E
S113362006F1FF36921B22614B4603AA214640460F
S1133630CDF800A000F026FD01306FD14FF0FF302F
S113364004B0BDE8F08723F004032360CDE72168CC
S11336503368080653F8045B02D4490648BFADB288
S11336606F2F33603F4814BF0A230823002184F8D6
S113367043106668002EA660BADB216821F00401BD
S11336802160002DB4D1002EB2D11646BCE72368C8
S113369043F02003236078273348236884F8457077
S11336A01F06316851F8045B02D45F0648BFADB20F
S11336B03160D90744BF43F0200323601DB11023B8
S11336C0D4E72848E9E7236823F020032360F6E7DA
S11336D024480A23CDE733682568181D61693060E2
S11336E02E061B6801D5196002E06806FBD5198017
S11336F000231646236197E7336800211A1D3260C0
S11337001E686268304600F0DAFD08B1801B606014
S113371063682361002384F8433085E723693246D4
S113372049464046D047013088D023689B0714D4CB
S1133730E068039B9842B8BF184681E701233246EC
S113374049464046D04701303FF478AF0135E3683D
S113375003995B1AAB42F1DCEAE7002504F1190690
S1133760F5E700BF504700006147000038B500236B
S1133770054D044608462B6000F06AFA431C02D14A
S11337802B6803B1236038BD6815002070B50F4E57
S11337900C460546316811B900F0E4F83060214662
S11337A0284600F0DFF8431C03D14FF0FF342046D5
S11337B070BDC41C24F00304A042F8D0211A28468A
S11337C000F0D0F80130F2D1EFE700BF6C15002013
S11337D02DE9F041CD1C064625F0030508350C2DD6
S11337E038BF0C25002D01DBA94204D90C2333601A
S11337F00020BDE8F081314F00F0A8F83B681C467A
S113380044BB29463046FFF7C1FF431C044650D150
S11338103C682146002941D1002C44D0236830461D
S113382004EB030800F09EF880453CD12168304643
S11338306D1A2946FFF7AAFF013034D023682B44C0
S113384023603B68002B36D05A68A24229D100225B
S11338505A600EE02268521B1DD40B2A16D9611936
S1133860A342256018BF5960636808BF396062517C
S11338704B60304600F070F804F10B00231D20F07B
S11338800700C21AB5D01B1AA350B2E7A34262685C
S1133890DED13A60EDE723466468B1E70C46496837
S11338A0B8E71346CEE70C233046336000F054F8F3
S11338B09EE70560DDE75B60FFDE00BF701500205A
S11338C038B50023064D0446084611462B6000F027
S11338D0C2F9431C02D12B6803B1236038BD00BF79
S11338E06815002038B50023054D044608462B60B2
S11338F000F0B6F9431C02D12B6803B1236038BD34
S11339006815002038B50446064D084611460022C5
S11339102A601A4600F0A6F9431C02D12B6803B1B1
S1133920236038BD6815002038B50446064D0846A6
S1133930114600222A601A4600F096F9431C02D16F
S11339402B6803B1236038BD68150020014800F0DE
S1133950CFBA00BF87150020014800F0CABA00BFE3
S11339608715002038B50023054D044608462B6012
S1133970FEF7F4FA431C02D12B6803B1236038BD6F
S11339806815002000F16003DBB23F2B27D861B13A
S11339904B1E5A425A4100F0F003C02B15D006D8F2
S11339A0A02B07D0B02B0BD070470422F3E7D02B09
S11339B010D07047002300F00F011846FDF72EBF0A
S11339C000F00F0100230120F8E700F00F010023AD
S11339D00220F3E700F00F0100230320EEE7704715
S11339E008B500F0F003C02B17D005D8A02B09D0E0
S11339F0B02B0ED0002008BDD02BFBD100F00F015E
S1133A00032002E000F00F010020FCF70BFDC0B220
S1133A10F1E700F00F010120F7E700F00F010220A9
S1133A20F3E7034603F0F002C02A084616D004D890
S1133A30A02A05D0B02A09D07047D02A15D07047E3
S1133A4003F00F0140B10020FCF70CBD03F00F019F
S1133A5008B10120F8E70120FCF724BD03F00F01B1
S1133A6008B10220F0E70220F6E703F00F0108B1E5
S1133A700320E9E70320EFE710B50021FCF7C8FDB8
S1133A800446FCF76FFD201E18BF012010BD08B5C9
S1133A9001213A20FDF786F9BDE808400021A42061
S1133AA0FFF770BFFCF782BE70477047FEE74AB16C
S1133AB0002310B550F8234041F8234001339342CA
S1133AC0F8D110BD7047002070474FF40040704794
S1133AD04FF47A707047FEE7EFF3108072B67047C8
S1133AE000B962B67047EFF31180302383F3118875
S1133AF0704780F31188704708B5FCF701FFBDE8F3
S1133B0008400021FDF728B90029CCBF012100217C
S1133B10FDF722B902214FF42070FDF7EDBA012020
S1133B20FDF77EBD704770B5054614460E46FFF797
S1133B30D3FF2B685C4034405C402C60BDE870408F
S1133B40FFF7CEBF4369DB01FCD4012300F500502D
S1133B5043607047022A10B54FF0000405D9033AB8
S1133B60022A0CD90360047110BD11F4000218BFBD
S1133B704FF07F4221F07F4313430C0EF2E721F014
S1133B80FF03CCB2EEE708B50A6F496F02F00702F3
S1133B90FFF7E0FF08BD83695B06FCD5C16370478E
S1133BA070B50C46154610B9FEF796F938B143685E
S1133BB02BB12A462146BDE87040006818472320EF
S1133BC070BDF7B50D4616461C4648B103B901ACA5
S1133BD087685FB12346324629460068B84706E045
S1133BE0FEF77AF904B901AC0028F1D1232003B01F
S1133BF0F0BDF8B50C461546064658B9FEF76CF903
S1133C0020462946FFF706FA0446002CD4BF372085
S1133C100020F8BDFEF760F986420746F0D0304632
S1133C20FEF74EF929462046FFF7F4F904463846D4
S1133C30FEF746F9E9E70EB403B503AA52F8041BEC
S1133C400192FFF7D6FF02B05DF804EB03B07047B2
S1133C5000207047FEE74FF4005300204B6070478C
S1133C60012070470020704707B5002001AB019088
S1133C70FFF7A7FF0198002808BF4FF0FF3003B0FB
S1133C805DF804FB38B50468206C856C15F00105FB
S1133C900BD0012200F500539A6483699B060FD56B
S1133CA02046BDE83840FEF733B9042384F83C309D
S1133CB0237E33B9C36C23F00403C3640123237646
S1133CC038BD637E1BB394F82D3003B3132184F8FD
S1133CD03550FFF760FF236CDA6C42F00402DA64BB
S1133CE05B6ADBB2112B0DD1012384F8343030220E
S1133CF0237A534303F1A04303F58023DB6E013B96
S1133D002363DDE7132BDBD184F83450EFE7C36C76
S1133D1023F00403C364D3E710B5FFF7DDFE0446C4
S1133D20FEF774F92046BDE81040FFF7D9BE012024
S1133D307047704738B5FFF7D6FE054600F006F821
S1133D4004462846FFF7D5FE204638BD4FF0B04361
S1133D509A6A1207FCD4186A704782074FF0B0427F
S1133D6000F00103916948BF43F040030B439361A2
S1133D707047036A70B505460E4684680BB9FFF7B1
S1133D80E7F9636EDB0705D4A389980502D4A06D17
S1133D9000F0AEF8A389190702D52369002B35D1A9
S1133DA021462846FFF760FB80B34FF0FF35636E72
S1133DB0DA0705D4A3899B0502D4A06D00F099F815
S1133DC0284670BD002B15DB23685A1C226019702D
S1133DD0A36816F8011F013BA3600029F2D1002B50
S1133DE016DA22460A21284600F00EF90130DCD00A
S1133DF00A25DCE7A2699A4201DC0A29E4D12246B9
S1133E00284600F001F90130E2D1CEE7013EDFE7B8
S1133E1023685A1C22600A221A70E9E710B50C467E
S1133E20B1F90E10FFF780FD0028ABBF636DA389C5
S1133E301B1823F48053ACBF6365A38110BD2DE927
S1133E40F0411F468B8905460C46DB05164605D511
S1133E5002230022B1F90E10FFF754FDA389324664
S1133E60B4F90E10284623F48053A3813B46BDE8E1
S1133E70F041FFF785B910B50C46B1F90E10FFF704
S1133E8041FD431CA38915BF606523F4805343F4AB
S1133E908053A38118BFA38110BDB1F90E10FFF7A1
S1133EA065BC2DE9F8430746884614460026D4E944
S1133EB00195B9F1010905D52468002CF7D13046E4
S1133EC0BDE8F883AB89012B07D9B5F90E3001336E
S1133ED003D029463846C04706436835E9E702441B
S1133EE00346934200D1704703F8011BF9E770477A
S1133EF07047704770B50C46B1F90E1096B0154670
S1133F0000291E460CDAA389002113F0800F14BF88
S1133F1040234FF48063002031602B6016B070BDE5
S1133F206A46FFF7CDFC0028EDDB019901F47041EE
S1133F30A1F50053594259414FF48063EBE78B8953
S1133F40F7B59D0706460C4607D504F147032360E1
S1133F5023610123636103B0F0BD01AB6A46FFF73F
S1133F60C9FF009F054630463946FFF731FC48B982
S1133F70B4F90C309A05EED423F0030343F00203A2
S1133F80A381E2E7A389206043F08003A381019B1E
S1133F90C4E904075BB1B4F90E103046FFF7A2FC84
S1133FA028B1A38923F0030343F00103A381A38968
S1133FB01D43A581CFE79368013B002B936010B4A8
S1133FC008DA9469A34201DB0A2903D15DF8044BA2
S1133FD000F01AB81368581C1060084619705DF890
S1133FE0044B7047F8B506460F461446D518AC4244
S1133FF001D1002007E03A4614F8011B3046FFF7D0
S1134000DAFF431CF3D1F8BDF8B50E461446054655
S113401018B1036A0BB9FFF79BF8A369A360A389DE
S11340201A0701D5236943B921462846FFF71CFA2C
S113403018B14FF0FF373846F8BD2368F6B222694D
S11340403746981A6369834205DC2146284600F006
S11340500EF90028EDD1A368013BA36023685A1C24
S113406022601E70431C62699A4204D0A389DB0754
S1134070E1D50A2EDFD12146284600F0F8F80028C1
S1134080D9D0D6E72DE9F047164698468A68074600
S11340900B690C46DDF820909342B8BF1346336099
S11340A091F843200AB1013333602368990642BF73
S11340B0336802333360256815F0060506D104F130
S11340C0190AE36832689B1AAB422BDC94F843303C
S11340D02268003B18BF0123920630D404F1430246
S11340E041463846C847013023D023681A3454F86F
S11340F00A2C03F00603042B0ABF54F80E5C0025B7
S113410033684FF0000608BFED1A54F8123C08BF9C
S113411025EAE5759342C4BF9B1AED18B5421AD13E
S1134120002008E00123524641463846C847013082
S113413003D14FF0FF30BDE8F0870135C1E7E11846
S11341405A1C30200233224481F8430094F845106D
S113415082F84310C2E70123224641463846C84745
S11341600130E6D00136D9E7B1F90C202DE9F04150
S1134170170705460C4656D44B68002B02DC0B6C23
S1134180002B3DDDE66A002E3AD0002312F4805263
S11341902F68216A2B6025D0626DA389580705D545
S11341A06368D21A636B0BB1236CD21A216A0023A1
S11341B0E66A2846B047411C24D000236360236983
S11341C02360A389DA0400D56065616B2F60B9B1FF
S11341D004F14403994202D02846FEF7E3FF00238A
S11341E063630DE001232846B047461C0246D4D140
S11341F02B68002BD1D01D2B01D0162B2AD12F6078
S113420000202EE02A68B4F90C3042B11D2A01D0F6
S1134210162A21D10023636023692360D5E76260F5
S113422022692260CEE70F69002FE9D093070E6858
S11342300F600CBF4B690023A6EB07088B60B8F135
S1134240000FDDDD43463A46216A2846A66AB04798
S1134250002808DCB4F90C3043F040034FF0FF3081
S1134260A381BDE8F0810744A8EB0008E7E738B56F
S11342700B6905460C4613B90025284638BD18B10C
S1134280036A0BB9FEF764FFB4F90C30002BF3D0CA
S1134290626ED00704D4990502D4A06DFFF728FEFE
S11342A028462146FFF760FF636E0546DA07E4D42B
S11342B0A3899B05E1D4A06DFFF71BFEDDE7C9B21E
S11342C00346024410B59342184601D1002003E08E
S11342D0047801338C42F6D110BD000000000000C8
S11342E0F8B500BFF8BC08BC9E467047F8B500BFDF
S11342F0F8BC08BC9E4670472F686F6D652F6D61D2
S11343007274696E2F53696D706C69636974795343
S1134310747564696F2F53444B732F73696D706C9C
S113432069636974795F73646B2F2F706C61746651
S11343306F726D2F656D6C69622F696E632F656D89
S11343405F6770696F2E6800FF011F00FF000F0098
S113435054657374696E67204144430A0000000089
S1134360000002000000000000000000BA04000089
S11343700000000000000200000000000000000037
S1134380BA040000000000002F686F6D652F6D6196
S11343907274696E2F53696D706C696369747953B3
S11343A0747564696F2F53444B732F73696D706C0C
S11343B069636974795F73646B2F706C6174666F81
S11343C0726D2F656D6C69622F7372632F656D5FFB
S11343D0636D752E6300020101032F686F6D652FF5
S11343E06D617274696E2F53696D706C6963697461
S11343F07953747564696F2F53444B732F73696DCC
S1134400706C69636974795F73646B2F706C617429
S1134410666F726D2F656D6C69622F7372632F65A1
S11344206D5F656D752E63002F686F6D652F6D610F
S11344307274696E2F53696D706C69636974795312
S1134440747564696F2F53444B732F73696D706C6B
S113445069636974795F73646B2F706C6174666FE0
S1134460726D2F656D6C69622F7372632F656D5F5A
S11344706770696F2E630000FF011F00FF000F00CB
S11344802F686F6D652F6D617274696E2F53696D3E
S1134490706C696369747953747564696F2F5344DC
S11344A04B732F73696D706C69636974795F73649E
S11344B06B2F706C6174666F726D2F656D6C6962C1
S11344C02F7372632F656D5F696164632E63002FC0
S11344D0686F6D652F6D617274696E2F53696D70AD
S11344E06C696369747953747564696F2F53444BB1
S11344F0732F73696D706C69636974795F73646B2E
S11345002F706C6174666F726D2F73657276696358
S1134510652F696E746572727570745F6D616E611A
S11345206765722F7372632F736C5F696E74657243
S1134530727570745F6D616E616765725F636F72CF
S11345407465786D2E63002F686F6D652F6D6172D1
S113455074696E2F53696D706C69636974795374EF
S11345607564696F2F53444B732F73696D706C6955
S1134570636974795F73646B2F706C6174666F72B6
S11345806D2F736572766963652F696F73747265D5
S1134590616D2F7372632F736C5F696F73747265CF
S11345A0616D5F72657461726765745F7374646969
S11345B06F2E63002F686F6D652F6D617274696E65
S11345C02F53696D706C6963697479537475646988
S11345D06F2F53444B732F73696D706C69636974E7
S11345E0795F73646B2F706C6174666F726D2F7377
S11345F06572766963652F696F73747265616D2F77
S11346007372632F736C5F696F73747265616D5F2E
S1134610756172742E63002F686F6D652F6D617202
S113462074696E2F53696D706C696369747953741E
S11346307564696F2F53444B732F73696D706C6984
S1134640636974795F73646B2F706C6174666F72E5
S11346506D2F736572766963652F706F7765725F0E
S11346606D616E616765722F7372632F736C5F7017
S11346706F7765725F6D616E616765722E630001AD
S11346800410402F686F6D652F6D617274696E2F11
S113469053696D706C696369747953747564696F77
S11346A02F53444B732F73696D706C69636974790C
S11346B05F73646B2F706C6174666F726D2F7365BA
S11346C072766963652F736C65657074696D657264
S11346D02F7372632F736C5F736C65657074696D8F
S11346E065722E63002F686F6D652F6D617274693A
S11346F06E2F53696D706C69636974795374756452
S1134700696F2F53444B732F73696D706C696369C0
S113471074795F73646B2F706C6174666F726D2F44
S1134720736572766963652F7564656C61792F733F
S113473072632F736C5F7564656C61792E630023FB
S11347402D302B2000686C4C006566674546470099
S113475030313233343536373839414243444546B3
S11347600030313233343536373839616263646549
S107477066000000DB
S10B477434BCFF7F01000000CA
S10F477C884700008C150020200000007D
S113478801000000C0EA2101C0EA21010080000004
S113479800F0490210160020A815002000000000AF
S11347A82C14002094140020FC14002000000000A5
S11347B800000000000000000000000000000000ED
S11347C800000000000000000000000000000000DD
S11347D800000000000000000000000000000000CD
S11347E800000000000000000000000003000000BA
S11347F82C14002001000000850300005D03000064
S90307D520
