S00E0000414443746573742E7333375E
S113000000100020F9050000592C0000592C0000B4
S1130010592C0000592C0000592C0000592C0000C8
S1130020592C0000592C0000592C0000592C0000B8
S1130030592C0000592C0000592C0000592C0000A8
S1130040592C0000592C0000592C0000592C000098
S1130050592C0000592C0000592C0000592C000088
S1130060592C0000592C0000592C0000592C000078
S1130070B5210000592C0000592C0000592C000017
S1130080592C0000592C0000592C0000592C000058
S1130090592C0000592C0000592C0000592C000048
S11300A0592C0000A907000085070000592C000006
S11300B0592C0000592C0000592C0000592C000028
S11300C0592C0000592C0000592C0000592C000018
S11300D0592C0000592C0000592C0000592C000008
S11300E0592C0000592C0000592C0000592C0000F8
S11300F0592C0000592C0000592C0000592C0000E8
S1130100592C0000592C0000592C0000592C0000D7
S1130110592C0000592C0000592C0000592C0000C7
S1130120592C0000592C0000592C0000592C0000B7
S1130130592C0000592C0000592C0000592C0000A7
S11301402DE9F74301F064FD01280ED1584B04203A
S11301505A6E4FF480235749520358BF564A4B6690
S113016001F51041086258BF536602F06AFD00F0C1
S11301707DF9524800F020FA4FF4806000F0D6F97F
S11301804FF4806055EC104B00F0D0F9204653EC4E
S1130190102B294602F02CF802460B463EA1D1E969
S11301A0000102F007FB0022454B06460F4602F011
S11301B05DFC0022002859D0414B3046394602F0FC
S11301C017F800223F4B02F0CBF900223E4B02F01D
S11301D011F802F087FC0546800440F0004000F06E
S11301E0EBF94FF4806000F0A1F9002251EC100B00
S11301F0364B02F0B5F902F04DFC314B00F311041B
S113020000223046394602F031FCAD04C4F3110338
S113021000283DD02B4343F0004000F0CDF90FF20D
S11302208009D9E900890127294EF760736903F42D
S1130230A073B3F5807FF9D16D46264C314628462C
S113024002F078FD95E8030084E80300206802F0DA
S11302501DF942464B4602F083F913A3D3E9002368
S113026002F0A8FA1C4BC3E90001DEE71B4B304641
S1130270394601F0BDFF0022124B02F071F9002251
S1130280114B01F0B7FF02F02DFC05468004A6E7F0
S113029043EA0500C1E700BF0000000000FC9F40E6
S11302A06666666666661A400000000000FEAF409F
S11302B0008000500090005000A000500000028018
S11302C00000F03F0000E0400000E03F000070C08C
S11302D00040005A20100020001000200000E83FD9
S11302E00348044B834202D0034B03B118477047C1
S11302F0B0120020B012002000000000064B074995
S1130300C91A891048BF0131491003D0044B0BB1FD
S113031001481847704700BFB0120020B0120020F7
S11303200000000010B5064C237843B9FFF7D8FF4E
S1130330044B13B10448AFF300800123237010BDB4
S11303408612002000000000E830000008B5054BCC
S11303501BB105490548AFF30080BDE80840FFF72D
S1130360CDBF00BF0000000008100020E8300000EE
S1130370A3F5803A704700BF174B002B08BF134BFF
S11303809D46FFF7F5FF00218B460F461348144A9C
S1130390121A02F003FD0E4B002B00D098470D4BB0
S11303A0002B00D098470020002104000D000D48C8
S11303B0002802D00C48AFF3008002F0C5FB2000F7
S11303C02900FFF7BDFE02F0ADFB00BF00000800EE
S11303D000000000000000000010002000100020B9
S11303E094120020000000000000000038B50D4BFE
S11303F0044633F810300D46CB40DB0704D440F2FA
S11304002D41094802F03DFC3022012302FB04F097
S113041041F2100200F1A040AB4000F5703083506F
S113042038BD00BF282E0000D82D000038B50D4B74
S1130430044633F810300D46CB40DB0704D440F2B9
S1130440FE31094802F01DFC3022012302FB04F0B6
S113045042F2100200F1A040AB4000F5703083502E
S113046038BD00BF282E0000D82D0000F0B52A4D5D
S113047093B008AC0FCD0FC40FCD0FC495E80300A3
S1130480002684E80300032701210225234C2A20A7
S1130490CDE903660291CDE9056607968DF80E70E5
S11304A000F058FB02214FF4B06000F089FD3246A1
S11304B020461B498DF8175001F06EF940F6E443CD
S11304C032468DF819000B930090334620461549A7
S11304D08DF8237001F092F94BF2B5230A9008AA23
S11304E0204605A9ADF808308DF8245001F0C0F974
S11304F002AA204603A901F0DBF80B4BD3F828230A
S113050042F00102C3F82823D3F8282342F48032AE
S1130510C3F8282313B0F0BD302E00000040005A69
S1130520002D31018096980000C003502DE9F0435E
S11305302DED028B06460121A42083B002F056FB68
S11305400024002500274FF00109DFF86880B74236
S113055014D10022164B2046294602F001F841EC42
S1130560180B0021A42002F041FBB0EE480AF0EE83
S1130570680A03B0BDEC028BBDE8F083C8F80C90A8
S1130580D8F8143003F4A073B3F5807FF8D1414652
S1130590684602F0CFFB009801F078FF02460B4654
S11305A02046294601F026FE013704460D46CEE7D3
S11305B00000503F0040005A0122064B5A60A3F548
S11305C000535A68002AFCD101221865024B5A6074
S11305D0704700BF0060005A0050005A0348044AA4
S11305E00449121A921002F038BB00BF4001000007
S11305F0400100009412002008B500F02FF8FFF726
S1130600EDFF124B12498B4212D30020114B1249B9
S11306108B4218D3FFF7B0FE186850F82240586890
S113062040F82240013298688242F5D30C33EAE75D
S11306300022F8E71C6844F8220001325C68A242F8
S1130640F8D30833E4E70022F8E700BFF0300000F5
S1130650FC300000FC300000FC3000004FF400418E
S1130660134B144A70B59A60D3F88820124D42F4A3
S11306707002C3F88820114A05F5005491664FF0C2
S1130680FF3222664FF6DF7262660222C3F8D02080
S1130690BFF34F8FBFF36F8F4FF44036032001F049
S11306A0D9FA0320E66001F0BBFA2E6170BD00BFE9
S11306B000ED00E0000000000080004400900050C5
S11306C0014B1868704700BF98120020084B1B6F3D
S11306D003F00703022B04D0032B05D0012B05D014
S11306E0FEE7044B18687047034BFBE70348704769
S11306F00080005098120020A0120020002D31012B
S113070008B5FFF7E3FF054B1B6FC3F30333013356
S1130710B0FBF3F0024B186008BD00BF008000502E
S1130720941200200048704700B4C404014B1868B8
S1130730704700BFA012002000487047002D31010F
S1130740014B1868704700BF9C12002070B5044626
S113075001250B4E04B970BD94FAA4F0B0FA80F0F0
S113076005FA00F306EB001224EA03045368002B95
S1130770F0D0117B11B191689847EBE79847E9E70E
S113078028100020074BD3F82404D3F8202403F5C1
S11307900053104000F0553020F05020C3F82004DE
S11307A0FFF7D4BF00C00350074BD3F82404D3F899
S11307B0202403F50053104000F0AA3020F0A020BC
S11307C0C3F82004FFF7C2BF00C00350044BD3F8A2
S11307D08420D206FBD4D3F88400C0F38110704780
S11307E00040005038B5104B0546D3F820310C4674
S11307F003F00303022B0BD0032B0DD0012B0FD1DD
S1130800FFF75EFF052305B1286004B1236038BDFE
S1130810FFF78CFF0323F6E7FFF78EFF0223F2E7CF
S113082001230020EFE700BF00800050F7B5002748
S1130830114B0197D3F88041064604F00304012CC0
S11308400D4608D0022C12D041F2D1310B4802F0EF
S113085018FA3C4604E0394601A8FFF7C3FF0F2409
S11308600EB1019B336005B12C6003B0F0BDFFF7FE
S113087063FF0190F4E700BF00800050582E000091
S113088038B51A4B0546D3F824010C4600F007008E
S1130890062821D8DFE800F0280410181C0C1400E6
S11308A0FFF70EFF052305B1286004B1236038BDAE
S11308B0FFF706FF0623F6E7FFF738FF0323F2E707
S11308C0FFF734FF0423EEE7FFF736FF0223EAE7DE
S11308D002F0CFF90723E6E7054840F6C87102F0B5
S11308E0D0F900231846DEE70123DCE7008000503E
S11308F0582E000038B5104B0546D3F840310C464D
S113090003F00303022B0BD0032B0DD0012B0FD1CB
S113091002F0B1F9092305B1286004B1236038BDA0
S1130920FFF70EFF0823F6E702F0A8F90B23F2E71E
S113093001230020EFE700BF0080005038B5164BBC
S11309400546D3F800020C4600F00700042819D825
S1130950DFE800F020030B0F130002F08CF90923E9
S113096005B1286004B1236038BDFFF7E9FE082310
S1130970F6E702F083F90B23F2E7FFF7C1FE0E233B
S1130980800AEDE7054841F28F4102F07AF900232D
S11309901846E5E70123E3E700800050582E0000E5
S11309A038B5124B0546D3F840320C4603F0030326
S11309B0022B0BD0032B0DD0012B0FD102F05BF9CE
S11309C0092305B1286004B1236038BDFFF7B8FEE0
S11309D00823F6E702F052F90B23F2E7044841F248
S11309E01A4102F04EF900231846EAE7008000504D
S11309F0582E000038B5104B0546D3F860310C462C
S1130A0003F00303022B0BD0032B0DD0012B0FD1CA
S1130A1002F031F9092305B1286004B1236038BD1F
S1130A20FFF78EFE0823F6E702F028F90B23F2E71E
S1130A3001230020EFE700BF0080005010B40F4CEA
S1130A400B46D4F8204204F00304012C0ED0022CEF
S1130A5010D008B1002101600BB100221A6040F6E9
S1130A60F27107485DF8044B02F00BB95DF8044BD2
S1130A70FFF7B8BE5DF8044BFFF73CBF00800050A1
S1130A80582E0000B0F5207F10B534D009D8B0F549
S1130A90007F2AD003D898B1B0F5C07F10D00024CD
S1130AA021E0B0F5607FFAD1154BD3F88030C3F361
S1130AB001149B0617D5032C15D040F296210FE0A4
S1130AC00F4B1C6F230B13F00E0FC4F303340AD027
S1130AD0072C08D00F2C06D0032C04D040F286211A
S1130AE0084802F0CEF8601C10BD054BD3F89040C6
S1130AF0C4F30464F7E7024B1C6FC4F38024F2E7E9
S1130B0000800050582E00004FF400320E4B10B5F8
S1130B1004469A660020FFF7B5FF604341F6713240
S1130B200A4C0B4BA04294BF00200120D969DA6320
S1130B309A6822F4401242EA00529A60CA0344BFFF
S1130B400022DA6310BD00BF00900050005A620218
S1130B500000035070B5460904460D460ED140F21C
S1130B6033310D4802F08DF8334604F01F047DB193
S1130B7003F580530122A2401A6070BD012E05D0F6
S1130B80064B074A022E18BF1346EEE7054BECE767
S1130B9003F50053EEE700BF582E000068800050B4
S1130BA06082005064800050002330B5802885B0F6
S1130BB00446019374D02AD8002877D0A0F12004E9
S1130BC0412C32D8412C30D8DFE804F070732F73F5
S1130BD0888888887373923FA8653F7373732F2F37
S1130BE02F2F2F2F8D57737373B2AD732F2F2F2F7A
S1130BF02F2F2F2F2F2F2F2F2F702F707070882FA4
S1130C002F2F2F2F2F2F2F2F2F2F2F2F7070B0F527
S1130C10806F63D024D8B0F5007F55D00BD8B0F5E1
S1130C20807F6AD0B0F5C07F40D04FF493614348D1
S1130C3002F027F837E0B0F5607F45D0F5D8B0F57D
S1130C40207F36D0B0F5407FEFD1FFF759FD044641
S1130C504FF42070FFF716FFB4FBF0F4640831E0A2
S1130C60B0F5C06F5AD00DD8B0F5A06F3BD0B0F539
S1130C70B06F3DD0B0F5906FD7D1002101A8FFF738
S1130C80FFFD10E0B0F5E06F4DD0B0F5F06F4FD040
S1130C90B0F5D06FC9D1002101A8FFF74FFE02E0E3
S1130CA0FFF714FD0190019805B030BDFFF728FD52
S1130CB0F8E7FFF725FD04464FF42070FFF7E2FE46
S1130CC0B4FBF0F40194EEE7FFF700FD054620467F
S1130CD0FFF7D8FEB5FBF0F50195E4E7002101A884
S1130CE0FFF780FDDFE7002101A8FFF7A7FEDAE7A1
S1130CF0002101A8FFF79AFDD5E702934FF0E02306
S1130D001B695B0705D5FFF7FBFC0290029B01936F
S1130D10C9E703A902A8FFF7EDFDF7E7002101A841
S1130D20FFF7E8FDBFE7002101A8FFF739FEBAE7A6
S1130D30002101A8FFF75EFEB5E700BF582E0000B2
S1130D401FB50023B0F5807F01937FD027D83828C2
S1130D5000F09C800BD82438092810D809280ED814
S1130D60DFE800F06F6F6F6F0D0D670D3685522849
S1130D7067D007D83D283AD03E2800F08C8040F256
S1130D807D5152E08028FAD1454B1B6F03F00703D5
S1130D90013B032B47D8DFE803F044413F75B0F52E
S1130DA0D06F64D019D8B0F5A06F6FD00AD8B0F561
S1130DB0806F46D0B0F5906FE1D1002001A9FFF714
S1130DC05FFD3AE0B0F5B06F33D0B0F5C06FD6D167
S1130DD0002001A9FFF78EFD2FE0B0F5006FECD0E5
S1130DE00AD8B0F5E06F56D0B0F5F06FC7D1002047
S1130DF001A9FFF7FFFD20E0B0F5086FBFD1284B34
S1130E00D3F8003103F00303022B35D0032B37D082
S1130E10012B39D1FFF78AFC032300E0052301935A
S1130E200BE00223FBE740F2CA411E4801F029FF10
S1130E3003E0002001A9FFF7F9FC019805B05DF873
S1130E4004FB002001A9FFF7CDFCF6E702934FF065
S1130E50E0231B695B0705D5FFF752FC0C230393C2
S1130E60039BDCE703A902A8FFF744FDF8E7002091
S1130E7001A9FFF763FDE0E7FFF762FC0823CEE773
S1130E8001F0F7FE0723CAE70123C8E7002001A900
S1130E90FFF7D4FDD1E7002001A9FFF781FDCCE7DE
S1130EA000800050582E0000B0F5207F10B55FD0B0
S1130EB00ED8B0F5007F49D003D800B3B0F5C07F99
S1130EC01DD040F21631BDE81040314801F0D9BEC2
S1130ED0B0F5607FF5D14C1E012C06D9042904D04D
S1130EE040F2F7212A4801F0CCFE2A4AD2F8803099
S1130EF023F0300343EA0413C2F8803010BD4C1EC3
S1130F00012C0AD9102903D8234BCB40DB0704D486
S1130F1040F2C9211E4801F0B4FE01F0C4FE01F004
S1130F20D0FE1C4A136F23F4704343EA043313675F
S1130F30FFF7E6FB0446FFF749FCC0F10201204637
S1130F4001F0B9FEBDE8104000F028B84C1E1F2C7B
S1130F5004D940F20A310E4801F093FE0D4AD2F84A
S1130F60903023F0F85343EA0463C2F89030C5E7A5
S1130F704C1E012C04D94FF44471054801F081FE44
S1130F80044A136F23F4806343EA84231367B5E7A9
S1130F90582E0000008000501001010008B54FF4E5
S1130FA0C070FFF701FEBDE808400449884294BFC1
S1130FB0012102214FF42070FFF776BF80F0FA027E
S1130FC0B0F5807F70B50C4600F006812BD8382828
S1130FD000F0BE8110D82438092816D8092814D85E
S1130FE0DFE810F0DD00DD00DD00DD00130013009C
S1130FF0C800130046007E01522800F0D08007D8B4
S11310003D2851D03E2800F0BC8140F64C111DE132
S11310108028FAD18B1E052B00F2A180DFE803F0B3
S11310209C8D9FA79F66B0F5D06F00F0598130D892
S1131030B0F5A06F00F08C8113D8B0F5806F00F08C
S1131040AE80B0F5906FE0D1013C062C00F23F81F8
S1131050DFE814F04201350144013B012B01390161
S11310603701B0F5B06F00F08580B0F5C06FCCD11A
S1131070013C0A2C00F2FB80DFE814F0FE00F900CA
S1131080F900F900F900F900F9000001ED00ED00A4
S1131090F700B0F5006FD7D017D8B0F5E06F00F0C7
S11310A07081B0F5F06FB0D1013C0A2C00F2F480ED
S11310B0DFE814F0F700F200F200F200F200F200B0
S11310C0F200F900E600E600F000B0F5086F9CD1EC
S11310D04C1E072C00F23381DFE814F03601310195
S11310E025013101310131012F0138010025042688
S11310F00121022000F0BEF901F0D5FD01F0E1FD6F
S1131100A74A136F23F0070333431367FFF7F8FA73
S11311100646FFF75BFBC0F10201304601F0CBFD50
S11311200121002000F0FAF9FFF738FF25B9032C5C
S113113002D101229B4B9A6270BD4FF400229A4B5C
S11311400E465A66012203F540539D6A03F5805307
S1131150C5F340059A62CBE700250126C8E70025C0
S11311604FF4C761914801F08CFD2E46C0E700257D
S11311700226BDE7022C07D00F2C0ED040F281616D
S11311808A4801F07EFD0024854AD2F8803123F09C
S113119003032343C2F88031CEE70124F4E7013C82
S11311A0042C10D8DFE804F0140D160F03000122FC
S11311B07B49D1F8203123F003031343C1F82031D4
S11311C0BAE70322F4E74FF4D861784801F059FDF7
S11311D00022EDE70222EBE7A1F10804082C33D842
S11311E0DFE804F0050532051C32323205004FF405
S11311F080326B4B6E49586E03F580535A660B6A06
S113120043F001030B62C1035CBF6A4B5A664FF0A3
S1131210E022136923F0040313618DE74FF4803255
S11312205F4B6349586E03F580535A660B6A23F08B
S113123001030B62C3035CBF5E4B5A664FF0E022AE
S1131240136943F00403E7E74FF4DD61BDE8704040
S1131250564801F016BD01225149D1F8403123F01E
S113126003031343C1F8403166E70322F4E74FF464
S1131270E1614E4801F005FD0022EDE70222EBE7B3
S113128001224749D1F8603123F003031343C1F825
S1131290603151E70322F4E740F22A71434801F038
S11312A0F0FC0022EDE70222EBE701233C49D1F8F0
S11312B0242122F007021343C1F824313CE703231D
S11312C0F4E70423F2E70523F0E70623EEE740F210
S11312D05371364801F0D5FC0023E7E70223E5E724
S11312E0013C0D2C16D8DFE804F01A151515151558
S11312F0151C07071115151301222949D1F80032CD
S113130023F007031343C1F8003215E70322F4E77F
S11313100422F2E740F27771244801F0B2FC002283
S1131320EBE70222E9E701221D49D1F8003123F05D
S113133003031343C1F80031FEE60322F4E740F24D
S1131340B7711A4801F09DFC0022EDE70222EBE799
S11313500F2C12D0102C12D0012C04D040F60F0107
S1131360124801F08EFC00220D49D1F8203223F0FE
S113137003031343C1F82032DEE60122F4E702221C
S1131380F2E7083C032C19D80B4B195D044AD2F838
S1131390403223F003030B43C2F84032CCE600BFD3
S11313A00080005000E0005000900050582E0000D3
S11313B000C0075000A00050A62E000040F6960181
S11313C0024801F05EFC0021E0E700BF582E000057
S11313D010B5224B70B94FF40031214A18605166A0
S11313E002F598325268012A03D11E4AD2F800212C
S11313F01A6010BD1B68002BFBD01B4A5268012ADF
S1131400F7D0184A8020C2F80031FFF799FC05286C
S11314101FD14FF4C070FFF735FB0128044604D1F7
S113142002214FF4C070FFF73FFD07220F4B1A61F2
S11314300122A3F580535A600B4A1369DB07FCD5DC
S1131440012CD6D12146BDE810404FF4C070FFF7FF
S11314502BBD0122064B5A60CBE700BF28120020A7
S1131460009000500080005000C0015000E0015086
S113147000D00150F8B50446244BD3F88420D0069C
S1131480FBD4D3F88430C3F381139C423CD0FFF7E0
S11314901DF9012C05460BD11D4B984204D940F28D
S11314A0B7711C4801F0EDFB0121284601F003FC53
S11314B001F0E8FB4FF00072174B07465A662046CE
S11314C001F007FC4FF48063104E621E93403367B3
S11314D0736E9A0103D4D6F884309B060AD5384635
S11314E001F0D4FB022C0FD12846BDE8F8400021BE
S11314F001F0E1BBD6F884309906E9D540F2C57114
S1131500044801F0BEFBE3E7F8BD00BF0040005013
S1131510005A6202AA2E00000060005010B50C466A
S113152008B9FFF7D3F8074B21461B783BB1064BAC
S1131530984204D80120BDE81040FFF79BBF022069
S1131540F9E700BF87120020005A6202032838B569
S113155004460D4605D80B4B33F81030CB40DB075F
S113156004D440F22D41084801F08BFB30220123C2
S1131570544341F2100204F1A044AB4004F570342A
S1131580A35038BD482F0000D82D0000032838B5DB
S113159004460D4605D80B4B33F81030CB40DB071F
S11315A004D440F2FE31084801F06BFB30220123E1
S11315B0544342F2100204F1A044AB4004F57034E9
S11315C0A35038BD482F0000D82D00000328F8B5DB
S11315D004460D4616461F4605D81C4B33F81030FA
S11315E0CB40DB0704D44FF4B071194801F049FB38
S11315F026B129462046CFB1FFF7A8FF04EB4403E8
S1131600072D4FF00F014FEA031312D8A80006FA72
S113161000F281400F48184401F05CFBAEB9294642
S1131620204677B1BDE8F840FFF790BFFFF7AEFF63
S1131630E4E7A5F10800800006FA00F281400648BC
S1131640E9E7BDE8F840FFF7A1BFF8BD482F000067
S1131650F82E000004C003500CC0035038B5124BE0
S1131660044698420D4604D04FF427710F4801F008
S113167008FB012204F5805361685A60EB786A78AC
S11316805B0443EA02232A781343AA78120402F47F
S113169080321343C4F89830CB0704D42046BDE805
S11316A0384001F026BB38BD0040005A502F0000DE
S11316B01E4B70B5984204460E46154604D04FF4AE
S11316C019711B4801F0DDFA204601F012FB337852
S11316D0727803F0070343EAC203F278294643EA27
S11316E00223B2782046120102F03002134323672A
S11316F0E26A337922F48B321B0222F4807203F4FF
S1131700E0631343B27943EA02437279120302F4A9
S113171080521343E362FFF7A1FF012204F58053D3
S11317205A60F37903B1E26070BD00BF0040005A13
S1131730502F0000144B10B598420C4604D040F2D0
S11317406F31124801F09DFA74B92A20FFF72CFA80
S11317500446B0B10E4B984206D90B4B9B68C3F3B9
S113176002730133B0FBF3F40A4B04F5742404F25E
S11317703F24B4FBF3F4601E7F2828BF7F20C0B24F
S113178010BD0124F0E700BF0040005A502F0000B4
S1131790005A620240420F0038B5154B0D4698427C
S11317A0144604D040F2AA31124801F06AFA35B95D
S11317B040F2AB310F4801F064FAB4B1FFDE0E4BD6
S11317C09D4228BF1D461CB92A20FFF7EDF90446A7
S11317D02C44013CB4FBF5F0AC4228BF00F1FF30CF
S11317E0032828BF0320C0B238BD2546ECE700BF5C
S11317F00040005A502F0000005A6202F8B51F46FC
S1131800174B0E469842144604D04FF4797115488C
S113181001F037FA26B940F2E531124801F031FA05
S1131820114D124B002F08BF1D46B54228BF354647
S11318301CB92A20FFF7B8F904469DF8183040F285
S1131840FF300133B4FBF3F46B1E1C44B4FBF5F31B
S1131850AC4228BF03F1FF33984228BF1846F8BDB5
S11318600040005A502F0000404B4C0080969800D6
S11318702DE9F04F2DED048BD04B054698420E46D2
S1131880144685B003D0F121CD4801F0FAF9DFF810
S11318905883002241462846FFF77EFF7779874226
S11318A038BF0746284601F024FA3079FFB250B910
S11318B02A20FFF779F94045014628BFB0FBF7F12C
S11318C02846FFF737FFF3783A071B0102F0E0429E
S11318D003F0300313430004327800F4FE000343A2
S11318E00AB143F0020372780AB143F00403B278F8
S11318F00AB143F00803AB60F38832892B61738922
S113190043EA02432B62AD4B9D4200F05481012314
S113191005F580556B6005B0BDEC048BBDE8F08F18
S1131920DCF88021BAF1000F0CD11FFA82FBDFED45
S1131930A57A1CE0DCF880214FEA124BBAF1000FC3
S113194000F0078140F2F1119D4801F09AF978E026
S1131950DCF88421BAF1000FF4D1DCF88C311FFAE1
S113196082FB1B145B0007EE903AF8EEE77A01F174
S1131970B44101F580418A6C0121C2F3820202F173
S1131980010C01FA0CF107EE101A2BF4C0434FEAD4
S1131990834A1BF4004FB8EEC79AF6EE008A8A4BCE
S11319A018BF4AF0004A002A40F0D780D3F88C11BF
S11319B00BB208EE103AB8EEC88A38EE278A00282F
S11319C040F0E28003A800F011F9DFED807A9FED8A
S11319D0807A27EE888AC7EE097A9FED7E7A67EED1
S11319E0877AB1EE007ABAF1004F48EE077A0BD04D
S11319F0DFED796A07EE10BA37EEA66ABAEEE87A36
S1131A00F0EE667A57EE067AF5EEC07AF1EE10FA49
S1131A10CBBFF1EE677A78EEE78A77EEE87AFDEEEF
S1131A20E87AC8BFFDEEE77A17EE902AB2F5003FD8
S1131A30C0F2B7806FEA5A436FEA43435F49320109
S1131A408B50360106F1B446C8F3090306F5804607
S1131A50736009F101091434B9F1020F3FF457AF6F
S1131A60002294F800A0554E5C485D49D4F80880E3
S1131A70924518BF0146534630460097FFF7BEFE15
S1131A8006EB0916B26C0AF0030C22F0435222F45E
S1131A901D1222F4405222F01F024CEA020C62781A
S1131AA01FFA88F8920002F01C024CEA020CA27899
S1131AB0804538BF80461203E07802F4E0424CEAE5
S1131AC002024FEA004C0CF4E02C42EA0C0294F8B7
S1131AD010C04FEA09114FEA4C5C0CF4600C42EA66
S1131AE00C0294F804C04FEA0C7C0CF0405C42EA0F
S1131AF00C02B264B26CDFF8D0C0C2F30232013A15
S1131B0009F10506042A1BD80FF2040E5EF822F030
S1131B102119000021190000351900005119000095
S1131B20251B0000DCF88421BAF1000F7FF40AAF12
S1131B30DCF88C314FEA124B1B1403EB430312E71E
S1131B40DCF880211FFA82FBBAF1000F3FF4EFAEFC
S1131B50F8E6DCF88C311B1405E7D3F8901169EE34
S1131B60286A09B207EE101AB8EEC77AD3F88811BA
S1131B7077EE677A0BB208EE103A87EEA67AB8EEE3
S1131B80C88A38EE078A1AE7D4ED037ADFED156ABE
S1131B90F8EE677A87EEA67AF7EE046AC6EE877ADD
S1131BA015E712F5003FAABFC2F311024AF400334D
S1131BB042EA0A0342E74FF000094DE70040005AA9
S1131BC0502F0000000000000080E00F3D3B843FE8
S1131BD0000080430000204400000049404B4C00BA
S1131BE08096980000007A44005A62024FF48032D2
S1131BF0064B5A6603F5E6235B69C3F385128270CC
S1131C0003F03F021B0B42700370704700900050BA
S1131C10024B1868C0F30740704700BF0080E00F14
S1131C20402810B5044608D801236109074A04F086
S1131C301F04A34042F8213010BD4FF48A710448B8
S1131C4001F01FF8002CF7DBEEE700BF00E100E035
S1131C509F2F0000002808DB01224309034900F0FC
S1131C601F008240603341F82320704700E100E008
S1131C700329F8B505460E4607D8174B5C5C032DBF
S1131C8019D8DFE805F0090F121540F26F31134837
S1131C9000F0F7FF0024F2E744F00204104B1F6841
S1131CA07FB9F8BD44F00804F8E744F02004F5E7F0
S1131CB044F08004F2E74FF46171084800F0E1FF5A
S1131CC0ECE77B681A68144203D0314628465B6807
S1131CD098473F68E4E700BF7F30000017300000FA
S1131CE03012002038B5104D2B78ABB10F4C23784F
S1131CF01BB100F03DF800232370002001F02DF803
S1131D000B4C50B100F086F80023012120782B7091
S1131D10FFF7AEFF0123237038BD0122054B1A7073
S1131D202278054B1A70F7E78912002088120020E8
S1131D308C1200208A1200208B12002038B500F08B
S1131D40A1FF094B05461B78012B04D800F09EFF28
S1131D500024204638BD054B1C6800F08FF804446D
S1131D60284600F093FFF4E78C1200202C12002088
S1131D70F8B51F4B1B78002B39D01E4C2378B3B910
S1131D801D4B9A6DD10302D5DA6D92072FD49B6D4A
S1131D90DB072CD400F0E3FF184B194A1860136FCB
S1131DA023F0070343F003031367FEF7A9FC00F0D5
S1131DB0D6FF124B134D1B68134EC01A2B78134FCA
S1131DC056F8232046F82300111A3A681048521A8C
S1131DD00A213A600932B2FBF1F20133DBB202604C
S1131DE0B3FBF1F201FB12332B7000232370F8BD17
S1131DF08F1200208E12002000C0005064120020B8
S1131E00008000508D1200203C1200203812002067
S1131E103412002008B500F059FF124B12491A6F12
S1131E20096822F007020A431A671049D3F82021EF
S1131E30096822F003020A43C3F820210C49D3F8AD
S1131E402421096822F007020A43C3F82421094B1C
S1131E501B7813B10122084B9A62BDE80840FEF7D3
S1131E604FBC00BF008000506C1200207412002090
S1131E70701200208F12002000E00050054B1878EB
S1131E8018B1054B186800EBD000044B1B681844CC
S1131E90704700BF8F120020341200206812002007
S1131EA038B500F068FF0025084B094C1A68236810
S1131EB0C31A2AB123B15169994203D3C91A516192
S1131EC0206038BD55615B1A9268F2E77C120020ED
S1131ED078120020C38870B504460D463BB9FFF75D
S1131EE02DFF8542064602D200F02CFF35460E49EE
S1131EF065610B688BB90C60A3600DE0AD1A9A683C
S1131F00184665616AB113465A69AA42F6D930B1D6
S1131F108460521BA3605A6170BD0020F4E70C601A
S1131F20F7E79C60A260F7E77C12002038B5134DF8
S1131F302B685B6993B1124A022014681C4400F0B8
S1131F4021FF204600F0E4F800230E492A680B70B4
S1131F50D088800709D501230B7038BD022000F01A
S1131F6011FF022000F01EF9EEE79268002AF4D077
S1131F7050690344012BEBD9EFE700BF7C1200202A
S1131F80781200209112002000220C490B687BB1CA
S1131F9083420AD183687AB1936083681BB15A691A
S1131FA041690A445A61002070471A469B68EEE76B
S1131FB00028EFD0022070470B60EEE77C1200206F
S1131FC0C2072DE9F04704460BD54D4A1388013367
S1131FD09BB21380FFF764FF4A4B1B680BB1FFF7FA
S1131FE0A5FFA30740F18A8000F053FE4FF00009DB
S1131FF005464E46FFF754FFC846424F3C680CB1B5
S113200063698BB10022404B012E1A7003D119F081
S1132010020F18BF1E70002C6CD0FFF787FF2846F4
S1132020BDE8F04700F03BBE23465A693AB91A7935
S11320302179914288BF1C469B68002BF5D1284624
S113204000F02DFE2569DDB100F095FEA269A0EB3C
S113205002094FEAE9734D4578EB030311DA23696A
S11320601344A361E368B4F80690013613B1204623
S11320702168984700F00DFE0546FFF711FFBDE704
S1132080A94600F006FE82462046FFF77DFF504633
S113209000F005FE2369002BE4D0B5EB09054FEAF7
S11320A0E97363EB4303002B04DA40F2345117481D
S11320B000F0E7FDA38B33B1E28B13449BB2B3F57D
S11320C07A7F0FD2E38300F0E4FD8146294620465F
S11320D0FFF700FFA369226948461344A36100F097
S11320E0DEFDBFE7A3F57A73E383A369013D013BFA
S11320F0A361E8E7022000F03DF890E7BDE8F0872F
S1132100841200207C1200209012002083300000F2
S113211010B5044600F0B6FD4FF0B042936A1907BB
S1132120FCD4136A116C5269520604D4CA1A032AE5
S113213001D88B420ED1E21A022A98BFDC1CB4F1FA
S1132140FF3F38BF013C4FF0B0431C649A6942F032
S113215040029A6100F09AFD054A13783BB14FF0B2
S1132160B041CB6B43F00203CB630023137010BD6B
S1132170A4120020820700F001030AD50121084AB5
S113218043F0400311704FF0B041CA6B22F00302D8
S1132190CA634FF0B0418A6922EA03038B61704736
S11321A0A4120020830742BF4022014B5A617047AA
S11321B00010005810B500F06CFD4FF0B043044619
S11321C05B695A06074A03F0010003F0510348BF54
S11321D040F002005361FFF7F3FE2046BDE81040D3
S11321E000F05DBD0020005881F0004102E000BF16
S11321F083F0004330B54FEA41044FEA430594EAC3
S1132200050F08BF90EA020F1FBF54EA000C55EAFD
S1132210020C7FEA645C7FEA655C00F0E2804FEACE
S11322205454D4EB5555B8BF6D420CDD2C4480EAB0
S1132230020281EA030382EA000083EA010180EAE0
S1132240020281EA0303362D88BF30BD11F0004F2E
S11322504FEA01314FF4801C4CEA113102D0404264
S113226061EB410113F0004F4FEA03334CEA13339F
S113227002D0524263EB430394EA050F00F0A780B7
S1132280A4F10104D5F1200E0DDB02FA0EFC22FAB2
S113229005F2801841F1000103FA0EF2801843FAA6
S11322A005F359410EE0A5F120050EF1200E012A97
S11322B003FA0EFC28BF4CF0020C43FA05F3C018D5
S11322C051EBE37101F0004507D54FF0000EDCF14E
S11322D0000C7EEB00006EEB0101B1F5801F1BD3F7
S11322E0B1F5001F0CD349085FEA30004FEA3C0CFB
S11322F004F101044FEA445212F5800F80F09A80F1
S1132300BCF1004F08BF5FEA500C50F1000041EBF4
S1132310045141EA050130BD5FEA4C0C404141EBF8
S11323200101013C28BFB1F5801FE9D291F0000FF3
S113233004BF01460020B1FA81F308BF2033A3F1A2
S11323400B03B3F120020CDA0C3208DD02F1140C99
S1132350C2F10C0201FA0CF021FA02F10CE002F1D4
S11323601402D8BFC2F1200C01FA02F120FA0CFCCD
S1132370DCBF41EA0C019040E41AA2BF01EB045116
S1132380294330BD6FEA04041F3C1CDA0C340EDC14
S113239004F11404C4F1200220FA04F001FA02F357
S11323A040EA030021FA04F345EA030130BDC4F115
S11323B00C04C4F1200220FA02F001FA04F340EA0A
S11323C00300294630BD21FA04F0294630BD94F0BB
S11323D0000F83F4801306BF81F480110134013DA2
S11323E04EE77FEA645C18BF7FEA655C29D094EA13
S11323F0050F08BF90EA020F05D054EA000C04BF91
S11324001946104630BD91EA030F1EBF002100207B
S113241030BD5FEA545C05D14000494128BF41F01A
S1132420004130BD14F580043CBF01F5801130BD7E
S113243001F0004545F0FE4141F470014FF0000009
S113244030BD7FEA645C1ABF194610467FEA655CBA
S11324501CBF0B46024650EA013406BF52EA03355C
S113246091EA030F41F4002130BD00BF90F0000F4A
S113247004BF0021704730B54FF4806404F1320486
S11324804FF000054FF0000150E700BF90F0000F3F
S113249004BF0021704730B54FF4806404F1320466
S11324A010F0004548BF40424FF000013EE700BF36
S11324B042004FEAE2014FEA31014FEA02701FBFC6
S11324C012F07F4393F07F4F81F06051704732F0F8
S11324D07F4208BF704793F07F4F04BF41F400214F
S11324E0704730B54FF4607401F0004521F00041AD
S11324F01CE700BF50EA010208BF704730B54FF037
S113250000050AE050EA010208BF704730B511F037
S1132510004502D5404261EB41014FF4806404F16F
S113252032045FEA915C3FF4D8AE4FF003025FEAF5
S1132530DC0C18BF03325FEADC0C18BF033202EB79
S1132540DC02C2F1200300FA03FC20FA02F001FAD3
S113255003FE40EA0E0021FA02F11444BDE600BF76
S113256070B54FF0FF0C4CF4E06C1CEA11541DBF25
S11325701CEA135594EA0C0F95EA0C0F00F0DEF8F0
S11325802C4481EA030621EA4C5123EA4C5350EAD5
S1132590013518BF52EA033541F4801143F4801326
S11325A038D0A0FB02CE4FF00005E1FB02E506F0B7
S11325B00042E0FB03E54FF00006E1FB03569CF00C
S11325C0000F18BF4EF0010EA4F1FF04B6F5007F12
S11325D064F5407404D25FEA4E0E6D4146EB060684
S11325E042EAC62141EA55514FEAC52040EA5E500D
S11325F04FEACE2EB4F1FD0C88BFBCF5E06F1ED8B7
S1132600BEF1004F08BF5FEA500E50F1000041EBED
S1132610045170BD06F0004646EA010140EA02009A
S113262081EA0301B4EB5C04C2BFD4EB0C0541EABC
S1132630045170BD41F480114FF0000E013C00F3D1
S1132640AB8014F1360FDEBF002001F0004170BDF5
S1132650C4F10004203C35DA0C341BDC04F114040E
S1132660C4F1200500FA05F320FA04F001FA05F29A
S113267040EA020001F0004221F0004110EBD37067
S113268021FA04F642EB06015EEA430E08BF20EA93
S1132690D37070BDC4F10C04C4F1200500FA04F336
S11326A020FA05F001FA04F240EA020001F00041C8
S11326B010EBD37041F100015EEA430E08BF20EA3B
S11326C0D37070BDC4F1200500FA05F24EEA020E83
S11326D020FA04F301FA05F243EA020321FA04F0B2
S11326E001F0004121FA04F220EA020000EBD37069
S11326F05EEA430E08BF20EAD37070BD94F0000F69
S11327000FD101F00046400041EB010111F4801F9C
S113271008BF013CF7D041EA060195F0000F18BF4D
S1132720704703F00046520043EB030313F4801F89
S113273008BF013DF7D043EA0603704794EA0C0F43
S11327400CEA135518BF95EA0C0F0CD050EA410659
S113275018BF52EA4306D1D181EA030101F00041D6
S11327604FF0000070BD50EA410606BF10461946FE
S113277052EA430619D094EA0C0F02D150EA01360A
S113278013D195EA0C0F05D152EA03361CBF10464B
S113279019460AD181EA030101F0004141F0FE41EA
S11327A041F470014FF0000070BD41F0FE4141F46E
S11327B0780170BD70B54FF0FF0C4CF4E06C1CEA6E
S11327C011541DBF1CEA135594EA0C0F95EA0C0F23
S11327D000F0A7F8A4EB050481EA030E52EA0335DE
S11327E04FEA013100F088804FEA03334FF08055FF
S11327F045EA131343EA12634FEA022245EA11152C
S113280045EA10654FEA00260EF000419D4208BFDC
S1132810964244F1FD0404F5407402D25B084FEA89
S11328203202B61A65EB03055B084FEA32024FF435
S113283080104FF4002CB6EB020E75EB030E22BF92
S1132840B61A754640EA0C005B084FEA3202B6EB52
S1132850020E75EB030E22BFB61A754640EA5C0001
S11328605B084FEA3202B6EB020E75EB030E22BF91
S1132870B61A754640EA9C005B084FEA3202B6EB92
S1132880020E75EB030E22BFB61A754640EADC0051
S113289055EA060E18D04FEA051545EA16754FEAB3
S11328A006164FEAC30343EA52734FEAC2025FEAD1
S11328B01C1CC0D111F4801F0BD141EA00014FF060
S11328C000004FF0004CB6E711F4801F04BF014331
S11328D00020B4F1FD0C88BFBCF5E06F3FF6AFAE4D
S11328E0B5EB030C04BFB6EB020C5FEA500C50F1DD
S11328F0000041EB045170BD0EF0004E4EEA113160
S113290014EB5C04C2BFD4EB0C0541EA045170BD66
S113291041F480114FF0000E013C90E645EA060EAA
S11329208DE60CEA135594EA0C0F08BF95EA0C0FD8
S11329303FF43BAF94EA0C0F0AD150EA01347FF420
S113294034AF95EA0C0F7FF425AF104619462CE7F7
S113295095EA0C0F06D152EA03353FF4FDAE10465A
S1132960194622E750EA410618BF52EA43067FF4AB
S1132970C5AE50EA41047FF40DAF52EA43057FF43B
S1132980EBAE12E74FF0FF3C06E000BF4FF0010C46
S113299002E000BF4FF0010C4DF804CD4FEA410CAA
S11329A07FEA6C5C4FEA430C18BF7FEA6C5C1BD077
S11329B001B050EA410C0CBF52EA430C91EA030FF8
S11329C002BF90EA020F0020704710F1000F91EA55
S11329D0030F58BF994208BF90422CBFD8176FEA23
S11329E0E37040F0010070474FEA410C7FEA6C5CF1
S11329F002D150EA013C07D14FEA430C7FEA6C5CF8
S1132A00D6D152EA033CD3D05DF8040B704700BF23
S1132A108446104662468C461946634600E000BF71
S1132A2001B5FFF7B7FF002848BF10F1000F01BD43
S1132A304DF808EDFFF7F4FF0CBF012000205DF80E
S1132A4008FB00BF4DF808EDFFF7EAFF34BF012093
S1132A5000205DF808FB00BF4DF808EDFFF7E0FF2C
S1132A6094BF012000205DF808FB00BF4DF808ED7D
S1132A70FFF7CEFF94BF012000205DF808FB00BFE4
S1132A804DF808EDFFF7C4FF34BF012000205DF8C6
S1132A9008FB00BF4FEA410212F5001215D211D50E
S1132AA06FF47873B3EB625212D94FEAC12343F047
S1132AB0004343EA505311F0004F23FA02F018BFC9
S1132AC0404270474FF00000704750EA013005D192
S1132AD011F0004008BF6FF0004070474FF0000055
S1132AE0704700BF4A0011D212F5001211D20DD561
S1132AF06FF47873B3EB62520ED44FEAC12343F000
S1132B00004343EA505323FA02F070474FF00000A9
S1132B10704750EA013002D14FF0FF3070474FF058
S1132B200000704708B5064B044613B10021AFF30B
S1132B300080044B1B6803B19847204600F0B2F8AC
S1132B40000000008012002070B50D4D00260D4CD1
S1132B50641BA410A64209D10B4D00260B4C00F0B7
S1132B602FF9641BA410A64205D170BD55F8043B8F
S1132B7001369847EEE755F8043B01369847F2E7EB
S1132B80A8120020A8120020A8120020AC120020D5
S1132B9000F16003DBB23F2B27D861B14B1E5A42D0
S1132BA05A4100F0F003C02B15D006D8A02B07D053
S1132BB0B02B0BD070470422F3E7D02B10D0704712
S1132BC0002300F00F011846FEF700BD00F00F01CE
S1132BD000230120F8E700F00F0100230220F3E7AF
S1132BE000F00F0100230320EEE77047034603F0D3
S1132BF0F002C02A084616D004D8A02A05D0B02A6C
S1132C0009D07047D02A15D0704703F00F0140B1A6
S1132C100020FDF7EBBB03F00F0108B10120F8E73A
S1132C200120FDF703BC03F00F0108B10220F0E717
S1132C300220F6E703F00F0108B10320E9E70320BF
S1132C40EFE708B501213A20FDF784FFBDE808400D
S1132C500021A420FFF79CBFFEE74AB1002310B572
S1132C6050F8234041F8234001339342F8D110BD7A
S1132C707047002070474FF4004070474FF47A705B
S1132C807047FEE7EFF3108072B6704700B962B682
S1132C907047EFF31180302383F31188704780F37A
S1132CA011887047FEE708B5FDF73CFDBDE8084014
S1132CB00021FDF729BF0029CCBF01210021FDF728
S1132CC023BF02214FF42070FEF7EEB80120FEF777
S1132CD07FBB704770B5054614460E46FFF7D2FF1A
S1132CE02B685C4034405C402C60BDE87040FFF7CA
S1132CF0CDBF4369DB01FCD4012300F500504360E0
S1132D007047022A10B54FF0000405D9033A022A8D
S1132D100CD90360047110BD11F4000218BF4FF008
S1132D207F4221F07F4313430C0EF2E721F0FF03AF
S1132D30CCB2EEE708B50A6F496F02F00702FFF75D
S1132D40E0FF08BD10B5FFF79DFF0446FEF7CAFF7C
S1132D502046BDE81040FFF799BF0120704738B501
S1132D60FFF797FF054600F006F804462846FFF7EC
S1132D7096FF204638BD4FF0B0439A6A1207FCD440
S1132D80186A704782074FF0B04200F0010391695E
S1132D9048BF43F040030B4393617047024403462A
S1132DA0934200D1704703F8011BF9E700000000CB
S1132DB0000000000000000000000000000000000F
S1132DC0F8B500BFF8BC08BC9E467047F8B500BF14
S1132DD0F8BC08BC9E4670472F686F6D652F6D6107
S1132DE07274696E2F53696D706C69636974795379
S1132DF0747564696F2F53444B732F73696D706CD2
S1132E0069636974795F73646B2F2F706C61746686
S1132E106F726D2F656D6C69622F696E632F656DBE
S1132E205F6770696F2E6800FF011F00FF000F00CD
S1132E30000002000000000000000000BA040000CE
S1132E40000000000000020000000000000000007C
S1132E50BA040000000000002F686F6D652F6D61DB
S1132E607274696E2F53696D706C696369747953F8
S1132E70747564696F2F53444B732F73696D706C51
S1132E8069636974795F73646B2F706C6174666FC6
S1132E90726D2F656D6C69622F7372632F656D5F40
S1132EA0636D752E6300020101032F686F6D652F3A
S1132EB06D617274696E2F53696D706C69636974A6
S1132EC07953747564696F2F53444B732F73696D11
S1132ED0706C69636974795F73646B2F706C61746F
S1132EE0666F726D2F656D6C69622F7372632F65E7
S1132EF06D5F656D752E63002F686F6D652F6D6155
S1132F007274696E2F53696D706C69636974795357
S1132F10747564696F2F53444B732F73696D706CB0
S1132F2069636974795F73646B2F706C6174666F25
S1132F30726D2F656D6C69622F7372632F656D5F9F
S1132F406770696F2E630000FF011F00FF000F0010
S1132F502F686F6D652F6D617274696E2F53696D83
S1132F60706C696369747953747564696F2F534421
S1132F704B732F73696D706C69636974795F7364E3
S1132F806B2F706C6174666F726D2F656D6C696206
S1132F902F7372632F656D5F696164632E63002F05
S1132FA0686F6D652F6D617274696E2F53696D70F2
S1132FB06C696369747953747564696F2F53444BF6
S1132FC0732F73696D706C69636974795F73646B73
S1132FD02F706C6174666F726D2F7365727669639E
S1132FE0652F696E746572727570745F6D616E6160
S1132FF06765722F7372632F736C5F696E74657289
S1133000727570745F6D616E616765725F636F7214
S11330107465786D2E63002F686F6D652F6D617216
S113302074696E2F53696D706C6963697479537434
S11330307564696F2F53444B732F73696D706C699A
S1133040636974795F73646B2F706C6174666F72FB
S11330506D2F736572766963652F706F7765725F24
S11330606D616E616765722F7372632F736C5F702D
S11330706F7765725F6D616E616765722E630001C3
S11330800410402F686F6D652F6D617274696E2F27
S113309053696D706C696369747953747564696F8D
S11330A02F53444B732F73696D706C696369747922
S11330B05F73646B2F706C6174666F726D2F7365D0
S11330C072766963652F736C65657074696D65727A
S11330D02F7372632F736C5F736C65657074696DA5
S10B30E065722E63000000007C
S10B30E888D2FF7F0100000003
S10F30F0FC3000009412002007000000D7
S11330FCC0EA2101C0EA21010080000000F049026D
S10F310C010000004D030000250300003A
S90305F9FE
