S01E000073696D706C655F627574746F6E5F626172656D6574616C2E73333745
S11300000010002041050000A9330000A9330000BE
S1130010A9330000A9330000A9330000A93300006C
S1130020A9330000A9330000A9330000A93300005C
S1130030A9330000A9330000A9330000A93300004C
S1130040A9330000A9330000A9330000A93300003C
S1130050A9330000A9330000A9330000A93300002C
S1130060A9330000A9330000A9330000A93300001C
S1130070F92D0000A9330000A9330000A9330000C2
S1130080A9330000A9330000A9330000A9330000FC
S1130090A9330000A9330000A9330000A9330000EC
S11300A0A93300003D0A0000190A0000A93300002A
S11300B0A9330000A9330000A9330000A9330000CC
S11300C0A9330000A9330000A9330000A9330000BC
S11300D0A9330000A9330000A9330000A9330000AC
S11300E0A9330000A9330000A9330000A93300009C
S11300F0A9330000A9330000A9330000A93300008C
S1130100A9330000A9330000A9330000A93300007B
S1130110A9330000A9330000A9330000A93300006B
S1130120A9330000A9330000A9330000A93300005B
S1130130A9330000A9330000A9330000A93300004B
S1130140013800D0FCE770470348044B834202D0D7
S1130150034B03B118477047CC120020CC12002087
S113016000000000064B0749C91A891048BF013135
S1130170491003D0044B0BB101481847704700BF26
S1130180CC120020CC1200200000000010B5064C58
S1130190237843B9FFF7D8FF044B13B10448AFF3F6
S11301A000800123237010BD8A120020000000008B
S11301B0C83D000008B5054B1BB105490548AFF320
S11301C00080BDE80840FFF7CDBF00BF000000007D
S11301D000100020C83D0000A3F5803A704700BF1E
S11301E0174B002B08BF134B9D46FFF7F5FF00216B
S11301F08B460F461348144A121A03F0DEFA0E4BCC
S1130200002B00D098470D4B002B00D098470020BE
S1130210002104000D000D48002802D00C48AFF363
S1130220008002F0F9FF2000290003F079F802F0C1
S1130230E1FF00BF00000800000000000000000013
S11302400010002000100020A01200200000000078
S11302500000000038B50D4B044633F810300D464D
S1130260CB40DB0704D440F22D41094803F0B1F838
S11302703022012302FB04F041F2100200F1A040FD
S1130280AB4000F57030835038BD00BF48380000E3
S1130290F837000038B50D4B044633F810300D46DE
S11302A0CB40DB0704D440F2FE31094803F091F857
S11302B03022012302FB04F042F2100200F1A040BC
S11302C0AB4000F57030835038BD00BF48380000A3
S11302D0F837000010B5044603F095F8012807D15B
S11302E0044B9C4204D1BDE81040034803F0F4B829
S11302F010BD00BF503800006838000008B501F098
S1130300D1FD01280ED10F4B04205A6E4FF48023E7
S11303100D49520358BF0D4A4B6601F5104108625E
S113032058BF536603F0C1F900F05AF803F0BBF963
S113033001F080FF03F057F900F046F8BDE80840EB
S113034002F064B8008000500090005000A00050FB
S1130350014803F053B800BF50380000014803F0CF
S1130360B8B800BF68380000082808B519D00FDCF9
S1130370022804DC002814DC40F2A31103E0042862
S1130380FAD14FF4B1710F4803F023F80E2008BDE1
S113039020280BD0402811D01028EDD14FF4C07183
S11303A0F1E7002304220621022003E004220023B3
S11303B01146012001F04EFC0020E8E7002304224E
S11303C00721F1E78038000008B5044803F012F96A
S11303D002F0C6FFBDE8084000F014B89C3B0000E2
S11303E0014803F007B900BF9C3B00000822014B01
S11303F01A67704700D003500822014B1A677047F0
S113040000E003502DE9F041404D88B001AC0FCD20
S11304100FC495E8070084E807000124DFF8008191
S11304203B4803F0E7F83B4F404603F0E3F83A4B10
S1130430384601A903938DF8124001F097FD234635
S113044004220021022001F005FC2246214600235B
S1130450022001F0FFFB022123460846042201F09A
S1130460F9FB042203212346022001F0F3FB4FF0A1
S113047002132A4D0226C5F83036A3F58033C5F899
S11304802C361C23C5F834664FF44870C5F81C3666
S113049002F0F4FC1420FFF7AFFF02F0EFFC23207E
S11304A0FFF7A4FF02F0EAFCB9213846FFF7A4FFE6
S11304B003F08FF8FFF79AFF002330461A461946D7
S11304C001F0C8FB002321461A46304601F0C2FB66
S11304D0234631463046002201F0BCFB234600226D
S11304E00321304601F0B6FB384601F007FD002336
S11304F04046C5F83036C5F82C36C5F83436C5F84C
S11305001C3603F07AF808B0BDE8F081E03800004A
S11305109C3B000000C0055000127A0000C003504C
S1130520943B00000348044A0449121A921002F052
S11305303CBF00BF4001000040010000A0120020A9
S113054008B500F02FF8FFF7EDFF124B12498B426C
S113055012D30020114B12498B4218D3FFF740FEEF
S1130560186850F82240586840F8224001329868D0
S11305708242F5D30C33EAE70022F8E71C6844F81A
S1130580220001325C68A242F8D30833E4E7002277
S1130590F8E700BFD03D0000DC3D0000DC3D00007A
S11305A0DC3D00004FF40041134B144A70B59A60CF
S11305B0D3F88820124D42F47002C3F88820114AFF
S11305C005F5005491664FF0FF3222664FF6DF7254
S11305D062660222C3F8D020BFF34F8FBFF36F8F40
S11305E04FF44036032001F067FE0320E66001F07B
S11305F031FE2E6170BD00BF00ED00E00000000080
S11306000080004400900050014B1868704700BF00
S1130610A4120020014B1860704700BFA4120020F0
S1130620084B1B6F03F00703022B04D0032B05D0E8
S1130630012B05D0FEE7044B18687047034BFBE71A
S11306400348704700800050A4120020AC12002020
S1130650002D310108B5FFF7E3FF054B1B6FC3F312
S113066003330133B0FBF3F0024B186008BD00BF45
S113067000800050A01200200048704700B4C40459
S1130680014B1868704700BFAC120020054B18607E
S1130690054B1B6F03F00703032B01D1FFF7DABFF0
S11306A0704700BFAC120020008000500048704723
S11306B0002D3101014B1868704700BFA8120020BB
S11306C0032838B504460D4605D80C4B33F81030D2
S11306D0CB40DB0704D440F2CF31094802F079FE65
S11306E01422302313FB042303F1A04303F57033D6
S11306F01868E84000F0010038BD00BF5C39000014
S1130700F837000073B504680546284802F072FF04
S1130710002301226179207901F09CFA6179207922
S1130720FFF7CEFFB0FA80F0A3794009022B2070C6
S11307301ED102F0E6FE1E4A2B466179207900F0B4
S113074001F9FF280246607915D12A46184900F0BC
S113075031F9FF28054603D18621164802F039FEF7
S1130760012361792079CDE900332A4601F002FAA8
S1130770002002B070BD0123267901460093304663
S1130780002301F0EDFA2A460949607900F012F9D4
S1130790FF28054603D19921064802F01AFE0022DB
S11307A0012361792079CDE90023DEE79C3B000039
S11307B011340000FC380000032838B504460D4607
S11307C005D80B4B33F81030CB40DB0704D440F290
S11307D0FE31084802F0FDFD30220123544342F269
S11307E0100204F1A044AB4004F57034A35038BDAA
S11307F064390000F8370000032838B504460D4674
S113080005D80B4B33F81030CB40DB0704D440F24F
S11308102D41084802F0DDFD30220123544341F20A
S1130820100204F1A044AB4004F57034A35038BD69
S113083064390000F837000010B50446064802F099
S1130840D9FEA3782078B3FA83F3042261785B0994
S113085001F000FA002010BD9C3B000038B504787C
S11308604578032C05D80B4B33F81430EB40DB07E9
S113087004D44FF48961084802F0ABFD302201230F
S1130880544343F2100204F1A044AB4004F5703425
S1130890A35038BD64390000F837000070B50578FE
S11308A00446032D467805D80D4B33F81530F34034
S11308B0DB0704D44FF483610A4802F08AFD302335
S11308C0102213FB052303F1A04303F570331B68C7
S11308D0F34003F00100A3780BB980F0010070BD70
S11308E064390000F837000070B5044601250B4E4A
S11308F004B970BD94FAA4F0B0FA80F005FA00F3DC
S113090006EB001224EA03045368002BF0D0117B99
S113091011B191689847EBE79847E9E71810002070
S113092038B505460C4602F05CFD0022044B03EB8F
S113093005135C601A73BDE8384002F058BD00BF6F
S113094018100020F8B504460D4617461E4602F05E
S113095048FD1CB9052D18D0FF241FE0012C05D13A
S1130960012D1FD0032DF7D104240EE0022C07D152
S1130970052D19D0072D19D0002DEDD1062404E042
S1130980032CE9D1022DE7D10924094904F110030C
S113099001EB03110123C1E901760B7302F027FD7A
S11309A02046F8BD0324F0E70724EEE70824ECE72B
S11309B018100020F8B505460E46174602F011FD42
S11309C0134B2C46D3F8242405F0FC0122FA05F33A
S11309D0DB0712D500230133DBB2042B04D1FF243F
S11309E002F005FD2046F8BDEC1804F003040C44A5
S11309F022FA04FC1CF0010FEDD1FF2CF0D00122EF
S1130A00044B03EB0413C3E901671A73E8E700BF5F
S1130A1000C0035018100020074BD3F82404D3F867
S1130A20202403F50053104000F0553020F05020EE
S1130A30C3F82004FFF758BF00C00350074BD3F896
S1130A402404D3F8202403F50053104000F0AA3006
S1130A5020F0A020C3F82004FFF746BF00C00350D5
S1130A60044BD3F88420D206FBD4D3F88400C0F31B
S1130A70811070470040005008B5334B98424FD066
S1130A8027D8324B984245D017D8314B98423ED0A4
S1130A900AD838B12F4B984239D041F2A6312E48AA
S1130AA002F097FC002034E02C4B98422FD02C4BC2
S1130AB09842F2D12B4B586E2BE02B4B98422CD002
S1130AC003F5371303F5D8639842E6D1254B986FA5
S1130AD01FE0264B98422FD00CD8254B984223D0A8
S1130AE0244B984224D0244B9842D6D11D4BD3F8A2
S1130AF084000EE0214B984222D003F5740303F5E1
S1130B0010539842C9D1174BD3F8980001E0154B04
S1130B10986D08BD134B186FFBE7124B586FF8E73D
S1130B20104BD3F88000F4E70E4BD3F88800F0E7BD
S1130B300C4BD3F88C00ECE70A4BD3F89000E8E7B1
S1130B40084BD3F89400E4E780BA8C01405DC600FA
S1130B5080841E0040420F006C39000000093D00F3
S1130B60C0CF6A000080E00F0024F400007E56032A
S1130B7080D54302006CDC020048E8010090D003F9
S1130B8038B5104B0546D3F820310C4603F0030367
S1130B90022B0BD0032B0DD0012B0FD1FFF734FD0B
S1130BA0052305B1286004B1236038BDFFF768FD53
S1130BB00323F6E7FFF77AFD0223F2E7012300207F
S1130BC0EFE700BF00800050F7B50027114B0197F5
S1130BD0D3F88041064604F00304012C0D4608D0E6
S1130BE0022C12D041F2D1310B4802F0F2FB3C4608
S1130BF004E0394601A8FFF7C3FF0F240EB1019B9F
S1130C00336005B12C6003B0F0BDFFF74FFD0190D8
S1130C10F4E700BF008000506C39000038B51A4B6F
S1130C200546D3F824010C4600F00700062821D815
S1130C30DFE800F0280410181C0C1400FFF7E4FC93
S1130C40052305B1286004B1236038BDFFF7DCFC3F
S1130C500623F6E7FFF714FD0323F2E7FFF710FD81
S1130C600423EEE7FFF722FD0223EAE702F0A9FBE3
S1130C700723E6E7054840F6C87102F0AAFB002303
S1130C801846DEE70123DCE7008000506C390000E1
S1130C9038B5104B0546D3F840310C4603F0030336
S1130CA0022B0BD0032B0DD0012B0FD102F08BFBA9
S1130CB0092305B1286004B1236038BDFFF7FAFCAD
S1130CC00823F6E702F082FB0B23F2E7012300205E
S1130CD0EFE700BF0080005038B5164B0546D3F847
S1130CE000020C4600F00700042819D8DFE800F0E1
S1130CF020030B0F130002F066FB092305B12860E3
S1130D0004B1236038BDFFF7D5FC0823F6E702F0F1
S1130D105DFB0B23F2E7FFF79DFC0E23800AEDE752
S1130D20054841F28F4102F054FB00231846E5E7E1
S1130D300123E3E7008000506C39000038B5124B02
S1130D400546D3F840320C4603F00303022B0BD0C4
S1130D50032B0DD0012B0FD102F035FB092305B174
S1130D60286004B1236038BDFFF7A4FC0823F6E72C
S1130D7002F02CFB0B23F2E7044841F21A4102F083
S1130D8028FB00231846EAE7008000506C39000075
S1130D9038B5104B0546D3F860310C4603F0030315
S1130DA0022B0BD0032B0DD0012B0FD102F00BFB28
S1130DB0092305B1286004B1236038BDFFF77AFC2C
S1130DC00823F6E702F002FB0B23F2E701230020DD
S1130DD0EFE700BF0080005010B40F4C0B46D4F86E
S1130DE0204204F00304012C0ED0022C10D008B1D0
S1130DF0002101600BB100221A6040F6F27107482D
S1130E005DF8044B02F0E5BA5DF8044BFFF7B8BE99
S1130E105DF8044BFFF73CBF008000506C390000C4
S1130E20B0F5207F10B534D009D8B0F5007F2AD0B2
S1130E3003D898B1B0F5C07F10D0002421E0B0F5FC
S1130E40607FFAD1154BD3F88030C3F301149B06AD
S1130E5017D5032C15D040F296210FE00F4B1C6FD1
S1130E60230B13F00E0FC4F303340AD0072C08D05D
S1130E700F2C06D0032C04D040F28621084802F03F
S1130E80A8FA601C10BD054BD3F89040C4F3046469
S1130E90F7E7024B1C6FC4F38024F2E70080005094
S1130EA06C3900004FF400320E4B10B504469A66BC
S1130EB00020FFF7B5FF604341F671320A4C0B4B3B
S1130EC0A04294BF00200120D969DA639A6822F411
S1130ED0401242EA00529A60CA0344BF0022DA6315
S1130EE010BD00BF00900050005A62020000035081
S1130EF070B5460904460D460ED140F233310D4813
S1130F0002F067FA334604F01F047DB103F5805301
S1130F100122A2401A6070BD012E05D0064B074A7B
S1130F20022E18BF1346EEE7054BECE703F500531A
S1130F30EEE700BF6C39000068800050608200500A
S1130F4064800050002330B5802885B004460193A6
S1130F5074D02AD8002877D0A0F12004412C32D8AC
S1130F60412C30D8DFE804F070732F7388888888A8
S1130F707373923FA8653F7373732F2F2F2F2F2FF7
S1130F808D57737373B2AD732F2F2F2F2F2F2F2FD6
S1130F902F2F2F2F2F702F707070882F2F2F2F2F00
S1130FA02F2F2F2F2F2F2F2F7070B0F5806F63D01E
S1130FB024D8B0F5007F55D00BD8B0F5807F6AD027
S1130FC0B0F5C07F40D04FF49361434802F001FA7A
S1130FD037E0B0F5607F45D0F5D8B0F5207F36D046
S1130FE0B0F5407FEFD1FFF735FB04464FF4207096
S1130FF0FFF716FFB4FBF0F4640831E0B0F5C06FFE
S11310005AD00DD8B0F5A06F3BD0B0F5B06F3DD03D
S1131010B0F5906FD7D1002101A8FFF7FFFD10E0D4
S1131020B0F5E06F4DD0B0F5F06F4FD0B0F5D06FA4
S1131030C9D1002101A8FFF74FFE02E0FFF7F0FA43
S11310400190019805B030BDFFF704FBF8E7FFF706
S113105001FB04464FF42070FFF7E2FEB4FBF0F40A
S11310600194EEE7FFF7DCFA05462046FFF7D8FEC9
S1131070B5FBF0F50195E4E7002101A8FFF780FD39
S1131080DFE7002101A8FFF7A7FEDAE7002101A8A6
S1131090FFF79AFDD5E702934FF0E0231B695B0746
S11310A005D5FFF7D7FA0290029B0193C9E703A97C
S11310B002A8FFF7EDFDF7E7002101A8FFF7E8FD1F
S11310C0BFE7002101A8FFF739FEBAE7002101A814
S11310D0FFF75EFEB5E700BF6C3900001FB50023C3
S11310E0B0F5807F01937FD027D8382800F09C800A
S11310F00BD82438092810D809280ED8DFE800F0C6
S11311006F6F6F6F0D0D670D3685522867D007D846
S11311103D283AD03E2800F08C8040F27D5152E0C8
S11311208028FAD1454B1B6F03F00703013B032BC7
S113113047D8DFE803F044413F75B0F5D06F64D081
S113114019D8B0F5A06F6FD00AD8B0F5806F46D02B
S1131150B0F5906FE1D1002001A9FFF75FFD3AE0FF
S1131160B0F5B06F33D0B0F5C06FD6D1002001A96F
S1131170FFF78EFD2FE0B0F5006FECD00AD8B0F584
S1131180E06F56D0B0F5F06FC7D1002001A9FFF78A
S1131190FFFD20E0B0F5086FBFD1284BD3F8003134
S11311A003F00303022B35D0032B37D0012B39D1A5
S11311B0FFF766FA032300E0052301930BE0022303
S11311C0FBE740F2CA411E4802F003F903E00020A5
S11311D001A9FFF7F9FC019805B05DF804FB0020B4
S11311E001A9FFF7CDFCF6E702934FF0E0231B695A
S11311F05B0705D5FFF72EFA0C230393039BDCE76B
S113120003A902A8FFF744FDF8E7002001A9FFF7AE
S113121063FDE0E7FFF74EFA0823CEE702F0D1F8CA
S11312200723CAE70123C8E7002001A9FFF7D4FD7B
S1131230D1E7002001A9FFF781FDCCE70080005031
S11312406C3900004FF48032074B0849586E03F59F
S113125080535A660B6A23F001030B62C3035CBF1D
S1131260034B5A66704700BF0080005000C007500F
S113127000A00050F8B5036804460F2B04D940F6CB
S113128077316C4802F0A5F863680F2B04D940F657
S11312907A31684802F09DF8A3680F2B04D940F610
S11312A07D31644802F095F8237B0F2B04D94FF469
S11312B03861604802F08DF8637B0F2B04D940F647
S11312C083315C4802F085F8A37B3F2B04D940F6B8
S11312D08631584802F07DF8E37B3F2B04D940F671
S11312E08931544802F075F82369032B04D940F678
S11312F08C31504802F06DF86369032B04D940F631
S11313008F314C4802F065F8E369012B04D940F6AB
S11313109231484802F05DF88020FFF7DFFE032891
S113132000F087804FF40022434B02215A6645F6B1
S11313300E03424AC2F88030414B9962012103F501
S113134080539962936DD903FCD4D4E900131B052F
S113135043EA0163E17B94F820500B43217BE77E51
S113136043EA0143617B6D0143EA0133A17B43EA14
S1131370811313619169D4E904031B0643EA806372
S113138001F000410B43A17E94F823000B43217E1E
S113139043EA0143617E43EA01239361136AE669E8
S11313A023F00D0394F8221043EA8703002E2DD175
S11313B01362966A94F8213045EA031326F0330544
S11313C02B4343F0010393621E4D1C4B9A6D35EA87
S11313D00202FBD102221A4DAA621A659A6D5200CA
S11313E0FCD41A69A56822F4700242EA05521A6113
S11313F04FF00042124B9A6119B9022203F580534F
S11314009A6278B90122104B9A620BE0334343F09D
S113141008031362936A23F0330303432B4343EA21
S11314204103936294F824301BB1044B074AC3F878
S11314308020F8BD6C3900000090005000C00050BE
S113144000D000500300014000E00050F1A7FFFF6E
S1131450014B93F9000070478B120020436810B5CC
S1131460072B044604D940F6D3512A4801F0B1FFB2
S1131470A368032B04D940F6D551264801F0A9FFEF
S11314802378032B04D940F6D751224801F0A1FF59
S113149094F90130002B04DA40F6D9511D4801F0CB
S11314A098FF4FF480011C4A637851664FF4D15180
S11314B0022002F5B832516218494F2B48604FF0B0
S11314C0010028BF4F2301F5805148601169C90309
S11314D0FCD4217843EA01235361D4E901131B01AD
S11314E043EA0123617B0B43217B43EA410393607D
S11314F0E37BA17B1B0143EA4113617C0B43217C09
S113150043EA41035360A37C13B16FF4D153536294
S113151010BD00BF6C390000009000500010025054
S1131520014B1880704700BFBA120020014B18808D
S1131530704700BFB81200204FF4001208B5184BD2
S11315405A660223174A5360936813F48033FBD11D
S1131550012822D1FFF794F8134B984215D003F5D4
S1131560122303F5F863984213D0104B00EB80026A
S1131570400AB3FBF0F3520A0A49CA620B6301231F
S11315804B620022074B5A6008BD45F67A13084A9D
S1131590F2E745F61A03074AEEE75362F1E700BFA4
S11315A0009000500040025000F0490264666666F4
S11315B0D8B80500BBCF0500B0F5207F10B55FD0CB
S11315C00ED8B0F5007F49D003D800B3B0F5C07F82
S11315D01DD040F21631BDE81040314801F0F9BE8B
S11315E0B0F5607FF5D14C1E012C06D9042904D036
S11315F040F2F7212A4801F0ECFE2A4AD2F8803062
S113160023F0300343EA0413C2F8803010BD4C1EAB
S1131610012C0AD9102903D8234BCB40DB0704D46F
S113162040F2C9211E4801F0D4FE01F082FF01F00E
S11316308EFF1C4A136F23F4704343EA0433136789
S1131640FFF708F80446FFF70BFAC0F10201204641
S113165001F077FFBDE8104000F028B84C1E1F2CA5
S113166004D940F20A310E4801F0B3FE0D4AD2F813
S1131670903023F0F85343EA0463C2F89030C5E78E
S11316804C1E012C04D94FF44471054801F0A1FE0D
S1131690044A136F23F4806343EA84231367B5E792
S11316A06C390000008000501001010008B54FF4AF
S11316B0C070FFF747FCBDE808400449884294BF66
S11316C0012102214FF42070FFF776BF80F0FA0267
S11316D02DE9F0410546FFF7CFF9431E03330446D5
S11316E004D940F6CF11384801F073FE4FF4C022FC
S11316F0364B5A6603F598335A68012A04D13449A3
S11317004A609A699207FCD18020FFF7E7FC05281C
S113171003D101F00EFF01F01AFF2E4B24F04074A8
S11317209D4237D02C4B9D4237D0FEF76DFF85424A
S1131730064603D90121284600F00EF9274FFB681D
S113174013F0060FFBD1D7F80880BC60BB68634078
S113175013F4F81F24D12846FEF75CFF8020FFF71E
S1131760BDFC052812D1FEF775FFA842044604D932
S113177040F62821144801F02CFEFFF771F9C0F15E
S11317800201204601F0DDFEFFF790FFAE4213D2C6
S1131790BDE8F08144F00074C7E744F08074C4E706
S11317A040F61721084801F014FE8020C7F808808D
S11317B0FFF794FC052805D0BDE8F0410121002085
S11317C000F0CAB83546CEE76C39000000900050EE
S11317D000E0015040420F0080841E0000000150D0
S11317E010B5224B70B94FF40031214A186051668C
S11317F002F598325268012A03D11E4AD2F8002118
S11318001A6010BD1B68002BFBD01B4A5268012ACA
S1131810F7D0184A8020C2F80031FFF75FFC052892
S11318201FD14FF4C070FFF7FBFA0128044604D11E
S113183002214FF4C070FFF7BFFE07220F4B1A615D
S11318400122A3F580535A600B4A1369DB07FCD5C8
S1131850012CD6D12146BDE810404FF4C070FFF7EB
S1131860ABBE0122064B5A60CBE700BF1812002022
S1131870009000500080005000C0015000E0015072
S113188000D00150044A4178536F23F4407343EA73
S113189001235367704700BF00400050034A017999
S11318A0D36E23F030030B43D366704700400050DF
S11318B0F8B50446244BD3F88420D006FBD4D3F8DF
S11318C08430C3F381139C423CD0FEF7A9FE012C63
S11318D005460BD11D4B984204D940F2B7711C4800
S11318E001F077FD0121284601F02BFE01F072FD85
S11318F04FF00072174B07465A66204601F050FE1F
S11319004FF48063104E621E93403367736E9A01E6
S113191003D4D6F884309B060AD5384601F05EFD20
S1131920022C0FD12846BDE8F840002101F009BE81
S1131930D6F884309906E9D540F2C571044801F01F
S113194048FDE3E7F8BD00BF00400050005A6202C2
S1131950BA3900000060005010B50C4608B9FEF713
S11319605FFE074B21461B783BB1064B984204D8D7
S11319700120BDE81040FFF79BBF0220F9E700BF3C
S11319808C120020005A62020278034B01210020CD
S11319901A70FFF7E1BF00BF8C1200204FF0004225
S11319A038B5264B26495A6601224A604AF6CD319B
S11319B003F50B235D6C1964154030BB9968C907A6
S11319C00BD4002401221F4B5A6015B11E4B1F4A31
S11319D01A6401F0E6FD204638BD1A498A601C4AA3
S11319E0D96ACC0705D4904201D10724EAE7013033
S11319F0F6E79042E5D1F8E70132DC6A14F0080416
S1131A0006D08A42F8D10724DFE700221049F4E720
S1131A108A42F8D020220B4B0B495A620122A3F5CB
S1131A2080539A6023460A4A486A800603D4934244
S1131A30E9D00133F8E79342C7D1E4E700900050BE
S1131A400050095000600950004009503254FFFF13
S1131A5040420F004FF0004238B5174B174C5A66FE
S1131A60012203F50C235A604AF6CD33656C2364D6
S1131A70437893401343124AD363C3788178A268AE
S1131A809B0043EA011322F074021343A36002791A
S1131A90837943EA022323614279C37943EA022327
S1131AA063610078FFF77AFFEB0744BF054B2364BB
S1131AB001F077FD012038BD00900050004009502E
S1131AC0004000503254FFFF1F2970B504460D46F4
S1131AD0164603D99121064801F07BFC2EB104F58A
S1131AE080540123AB40236070BD04F50054F8E733
S1131AF0083A0000032838B504460D4605D80B4BB8
S1131B0033F81030CB40DB0704D440F22D410848B1
S1131B1001F05FFC30220123544341F2100204F12E
S1131B20A044AB4004F57034A35038BDA63A00007D
S1131B30F8370000032838B504460D4605D80B4B8A
S1131B4033F81030CB40DB0704D440F2FE310848B0
S1131B5001F03FFC30220123544342F2100204F10D
S1131B60A044AB4004F57034A35038BDA63A00003D
S1131B70F83700002DE9F84F032807460E461446AF
S1131B8098469DF828A09DF82C9005D8274B33F84B
S1131B901030CB40DB0703D4BF21254801F019FCEA
S1131BA086EA0403032B03D9C121214801F011FC67
S1131BB0072C4FF0030506F0030625D84FEA840BE3
S1131BC005FA0BF529461B4807FA0BF201F0EAFC6B
S1131BD02946194806FA0BF201F0E4FC4246214674
S1131BE01648FFF771FF524621461548FFF76CFF70
S1131BF00123144AA340C2F8203421464A46BDE8D2
S1131C00F84F1148FFF760BFA4F1080B4FEA8B0BA4
S1131C1005FA0BF529460D4807FA0BF201F0C2FC50
S1131C2029460B4806FA0BF2D6E700BFA63A000095
S1131C30573A000000C4035008C4035010C40350B2
S1131C4014C4035000E0035024C4035004C40350DC
S1131C500CC403500328F8B504460D4616461F4627
S1131C6005D81C4B33F81030CB40DB0704D44FF4B9
S1131C70B071194801F0ADFB26B129462046CFB119
S1131C80FFF738FF04EB4403072D4FF00F014FEA31
S1131C90031312D8A80006FA00F281400F48184432
S1131CA001F080FCAEB92946204677B1BDE8F84082
S1131CB0FFF720BFFFF73EFFE4E7A5F1080080002F
S1131CC006FA00F281400648E9E7BDE8F840FFF76C
S1131CD031BFF8BDA63A0000573A000004C00350D3
S1131CE00CC0035070B5194E054630420C4604D062
S1131CF040F2AB11164801F06CFB344204D04FF4AF
S1131D00D771134801F065FB124B2C40D3F83024F3
S1131D1022EA0502C3F83024D3F830241443C3F86C
S1131D203044D3F82C242A43C3F82C240A4AD36E13
S1131D3003F03003202B1FBFD36E23F0300343F096
S1131D401003D366054BC3F8205470BDFFFF00F0A9
S1131D50573A000000C003500040005000E0035018
S1131D602DE9F041032805460F4614461E469DF80A
S1131D70188005D80F4B33F81030CB40DB0704D460
S1131D804FF49A710C4801F024FB0322394628468B
S1131D9086F00103FFF75EFF0120103406FA04F118
S1131DA0A040FFF79FFF42462146BDE8F0410348AB
S1131DB0FFF78ABEA63A0000573A000024C4035035
S1131DC0022838B505460C4603D94C210C4801F0CD
S1131DD000FBE378627821785B0143EA820322798D
S1131DE00B4343EA02130C226A4302F1B042136329
S1131DF0012902BFA278034B43F8252038BD00BF58
S1131E00AE3A0000E880035008B54FF0B0435A687A
S1131E106AB958B15B680BB101F0D3FB01210D4BDA
S1131E20596001F0CEFB4FF0B043D96008BD5B6848
S1131E300BB101F0C6FB0028F0D101F0C2FB4FF05A
S1131E40B0430222DA6001F0BCFB0122024B5A606B
S1131E50ECE700BF00100058002000584FF0B041DC
S1131E604B6810B50BB101F0ACFB01220B4BC478ED
S1131E705A608378934043EA840344782343047983
S1131E8043EA0413447943EAC4038B60044B5A6065
S1131E900378C3F10203CB6010BD00BF00200058DB
S1131EA000100058024B1868C0F30740704700BF89
S1131EB00080E00F70B506460C46154622B940F284
S1131EC08E210C4801F085FA24B94FF42070FFF7F5
S1131ED039F804466D00013CB4FBF5F4064B2502C9
S1131EE013EA042304D040F2B321024801F071FA4A
S1131EF0F56170BDFD3A0000070080FF174B10B577
S1131F009842044608D003F58043984204D040F236
S1131F104241134801F05DFA012204F580535A60EE
S1131F2040F6AA6341F20502636100230D49A360F0
S1131F30E365E26004F500522361E361E3649164C4
S1131F400649A3658C4203D123650023636502E03F
S1131F5005498C42F8D00123536010BD00C00550E0
S1131F60FD3A0000FFFF01000000065038B52F4B7A
S1131F70044698420D4608D003F58043984204D0A5
S1131F8040F269312A4801F024FA2046FFF7B6FFEF
S1131F90012204F580535A602B8AA26843F001039E
S1131FA01343AA7B43EA8223A360A3682A7D43EAFE
S1131FB04273A360AB7C5BB11C4AEB7C94422DD191
S1131FC0A2F51032C2F88C31E36D43F08003E3656F
S1131FD02B7B2046D5E9011243F48053E360FFF7DD
S1131FE069FF6B7B0BB1102363616B7D1BB1A3682D
S1131FF043F48033A360AB7D1BB1A36843F4004377
S1132000A360EB7D2A7E1B07120503F0E04302F474
S1132010E0021343A3652B78636138BD054A9442FB
S113202004BFA2F52032C2F89C31CDE700C00550B0
S1132030FD3A00000000065070B50D46E8B1036893
S113204013F4E07F03F03F06C3F3821210D0012A99
S113205013D10B4C9B0603D591210A4801F0B9F921
S113206045B104F5805401230020B340236070BDC2
S1132070054CEFE704F50054F5E70E20F7E700BF41
S113208068800050083A00006480005030B58BB07E
S11320906D46624C0FCC0FC554F8043B68462B6068
S11320A04FF07E6393F89C306D46FF2B08BF3F23AF
S11320B08DF80130FFF7D2F93220FFF731FA0FCC57
S11320C00FC50FCC0FC594E8030085E80300544BFB
S11320D0D3F84C21110340F18B80A3F5FE431C88F7
S11320E04FF6FF739C4208BF8C248DF81940FFF70C
S11320F0AFF9044484F308044A488DF81840FEF705
S1132100C5FA6846FFF7B6F83220FFF70FFA4648DB
S1132110FFF7DEFA454C01213520FEF7E9FE0020E9
S1132120FFF70AFA01F018FA236F002023F00703DF
S113213043F003032367236F23F4744343F480635E
S1132140236701F014FA3A4BD3F8FC20D20153D49C
S1132150D4F88030C4F88030344BD3F8202122F0F6
S1132160030242F00202C3F82021D3F8242122F012
S1132170070242F00202C3F82421D3F8802122F09E
S1132180030242F00102C3F88021D3F8402122F077
S1132190030242F00202C3F84021D3F8602122F086
S11321A0030242F00202C3F86021D3F8402222F075
S11321B0030242F00202C3F84022D3F8002222F0C4
S11321C0070242F00202C3F80022D3F8202222F0D0
S11321D0030242F00102C3F82022FFF733F84FF064
S11321E0E0220020136963F0040313610BB030BDD7
S11321F0D3F85041E4B278E7D3F8FC2022F080729F
S1132200C3F8FC20D4F88020C4F88020D3F8FC2044
S113221042F08072C3F8FC209EE700BF503B0000F0
S11322200080E00F00F0490200B4C40400800050B4
S113223000ED00E007B56B46054A1068516803C31A
S11322406846FFF707FC002003B05DF804FB00BFFD
S11322508C3B0000402810B5044608D801236109CE
S1132260074A04F01F04A34042F8213010BD4FF484
S11322708A71044801F0ADF8002CF7DBEEE700BFEB
S113228000E100E0AC3B00003F2810B5044604D94F
S113229040F21F11064801F09CF8064B621153F8F6
S11322A0220004F01F04E040C04300F0010010BD10
S11322B0AC3B000000E100E0002808DB01224309F8
S11322C0034900F01F008240603341F82320704727
S11322D000E100E038B500F11003502B04460D4630
S11322E004D94FF4E1710D4801F073F81E2D04D99F
S11322F040F2C311094801F06CF8002CACBF04F1A2
S11323006044074B4FEA0515EDB2ABBF04F56144D9
S113231004F00F0484F800531D5538BDAC3B000095
S113232014ED00E0054B1A782AB95B78002B0CBF3A
S11323300320022070470120704700BF9212002042
S11323400329F8B505460E4607D8174B5C5C032DE8
S113235019D8DFE805F0090F121540F26F31134860
S113236001F037F80024F2E744F00204104B1F6830
S11323707FB9F8BD44F00804F8E744F02004F5E719
S113238044F08004F2E74FF46171084801F021F849
S1132390ECE77B681A68144203D0314628465B6830
S11323A098473F68E4E700BF8C3C0000243C0000F1
S11323B02812002038B5104D2B78ABB10F4C237880
S11323C01BB100F0E5F900232370002001F083F92C
S11323D00B4C50B100F02EFA0023012120782B7011
S11323E0FFF7AEFF0123237038BD0122054B1A709D
S11323F02278054B1A70F7E78F1200208E12002006
S113240094120020901200209112002070B500F068
S1132410E1FF174E0546174801F0ECF83378D3B9BD
S113242000F022FB044620B1284600F0D7FF2046E6
S113243070BD114800F0DEFF00F008FD0F4B1C607A
S113244000F06AFB0E4B0F4A1860536F43F0010310
S1132450536701F047F900F0EDF801F03EF90A4B3B
S11324600024186001232846337000F0B7FFDEE72C
S1132470951200209C3B0000281200201C12002012
S11324802412002000400050201200202DE9F843BF
S1132490441EE3B2012B0E4604D940F2C71135485D
S11324A000F097FF344D2B5DFF2B4AD1002E50D006
S11324B04FF4E5712F4800F08CFF2B5D002B4CD0BE
S11324C02E4F013339782B55012944D9FFF72AFFC0
S11324D00128044646D800F07DFFDFF8AC800546AD
S11324E098F8003013B3264E33781BB901223270AA
S11324F0244A1370DFF8949099F8003023B100F067
S113250047F9002389F80030284600F067FF0120CE
S113251001F0E1F800F05EFF337805461BB100F0EE
S113252089F900233370002388F80030284600F02E
S113253055FF3878A0420ED02146FFF701FF3C70CA
S113254009E063B94EB94FF4E6710A4800F041FF5F
S11325502B5D013B2B55BDE8F8832B5DB0E7002EC6
S1132560F7D0ADE70329E4D10228E2D101F0B9F8AC
S1132570DFE700BF243C00009212002094120020E8
S11325808D120020901200208F1200208E12002045
S113259038B500F01FFF094B05461B78012B04D802
S11325A000F01CFF0024204638BD054B1C6800F0D9
S11325B075F90444284600F011FFF4E79412002052
S11325C01C120020054B1B685843054B00F5742072
S11325D000F23F20B0FBF3F0704700BF241200204C
S11325E040420F0073B5114E0446337883420FD036
S11325F04FF400730E4DADF8043058B101A8FFF745
S113260041F94020FFF7DEFF2B68181A2860347068
S113261002B070BD8DF8050001A8FFF733F9402022
S1132620FFF7D0FF2B681844F0E700BFBF1200206B
S11326306012002073B5002401A88DF80440FFF750
S1132640A3F92046FFF7CEFF444A4549136F454896
S113265003F007030B60D2F80011434D01F00301AE
S113266001604FF400204149032B48664FF40030C9
S1132670486601F598318969C1F34001297057D042
S1132680D2F8203103F00303981E43424341D2F8A9
S11326902421374C02F00702022A08BF43F0010349
S11326A04FF4C8702370FFF78DFF0022314B32497D
S11326B01860324E0B680132D2B20A2A46F8040B73
S11326C0F9D1034400EBC00003440B602B782C4D7C
S11326D0002B3AD02378214A3BB9D2F8003103F0D9
S11326E00303591E4B424B412370D2F8003103F0CF
S11326F00303022B1ED0032B1FD0012B20D1FDF787
S1132700BFFF024608B31F4B1F4EDC680023194667
S1132710C4F30B04013404EB84040138E4FB060124
S113272000F0D8FBFFF74EFF2B6803442B600CE04E
S11327300123ACE7FDF7BEFFE3E700F042FEE0E76C
S113274040F20F11114800F044FE1F20FFF73AFF3A
S11327502B6803442B6002B070BD00BF00800050A2
S1132760641200206812002098120020009000508B
S1132770991200202C120020301200203412002064
S11327806012002000C0015040420F00903C000045
S1132790F8B51F4B1B78002B39D01E4C2378B3B9E6
S11327A01D4B9A6DD10302D5DA6D92072FD49B6D20
S11327B0DB072CD400F0C8FF184B194A1860136FBC
S11327C023F0070343F003031367FDF743FF00F00F
S11327D0BBFF124B134D1B68134EC01A2B78134FBB
S11327E056F8232046F82300111A3A681048521A62
S11327F00A213A600932B2FBF1F20133DBB2026022
S1132800B3FBF1F201FB12332B7000232370F8BDEC
S1132810991200209712002000C000505C12002082
S11328200080005096120020341200203012002044
S11328302C12002008B500F0B0FE124B12491A6F9A
S1132840096822F007020A431A671049D3F82021C5
S1132850096822F003020A43C3F820210C49D3F883
S11328602421096822F007020A43C3F82421094BF2
S11328701B7813B10122084B9A62BDE80840FDF7AA
S1132880E9BE00BF008000506412002070120020D6
S11328906C1200209912002000E00050054B1878BB
S11328A018B1054B186800EBD000044B1B681844A2
S11328B0704700BF991200202C12002060120020E3
S11328C038B500F04FFF0025084B094C1A682368FF
S11328D0C31A2AB123B15169994203D3C91A516168
S11328E0206038BD55615B1A9268F2E77C120020C3
S11328F078120020C38870B504460D463BB9FFF733
S113290047FE8542064602D200F0DAFE35460E49FD
S113291065610B688BB90C60A3600DE0AD1A9A6811
S1132920184665616AB113465A69AA42F6D930B1AC
S11329308460521BA3605A6170BD0020F4E70C60F0
S1132940F7E79C60A260F7E77C12002038B5134DCE
S11329502B685B6993B1124A022014681C4400F08E
S113296008FF204600F0F6F900230E492A680B7090
S1132970D088800709D501230B7038BD022000F0F0
S1132980F8FE022000F030FAEEE79268002AF4D054
S113299050690344012BEBD9EFE700BF7C12002000
S11329A0781200209B12002070B516469DF8142062
S11329B0C0E903360271049ABDF81830026000229F
S11329C004460D468260C380EEB900F0CBFE284475
S11329D0A0619DB12E4600F0FDFC0546FFF770FF97
S11329E031462046FFF786FF104B1B68A34201D1F6
S11329F0FFF7ACFF284600F0F1FC02E0E3686561F4
S1132A007BB9002070BD00F0ADFE3044A061002D04
S1132A10E0D1E3686561002BDDD02046216898474A
S1132A20D9E7204621689847EBE700BF7C120020D5
S1132A3000220C490B687BB183420AD183687AB1C6
S1132A40936083681BB15A6941690A445A61002042
S1132A5070471A469B68EEE70028EFD002207047C3
S1132A600B60EEE77C12002070B500F0BAFC144E47
S1132A7005463478FCB9134B1C60134B1C60134B94
S1132A801C8000F025F9012000F073FE00F0CEF95F
S1132A900F4B0246186020B9284600F0A8FC2320FA
S1132AA070BD234640F2E7310A4800F013FA0A4B9E
S1132AB0186001233370284600F099FC0020EFE7EA
S1132AC09C1200207C120020781200208812002022
S1132AD08012002018FCFFFF7412002038B50C4649
S1132AE00546A8B1A1B100230B7000F07AFC0121C6
S1132AF0084B1B6833B900F07AFC002038BD9D42B6
S1132B0004D121702278002AF9D0F4E79B68F1E718
S1132B102220F3E77C120020014B1868704700BFA5
S1132B208012002038B50021044640F2E730054BFE
S1132B304FF47A721D680023E5FB040100F0CAF922
S1132B4038BD00BF80120020012300B58DB08DF880
S1132B500F30FFF7E7FF00230146CDE90033074AB2
S1132B600DF10F0304A800F0CBFD18B99DF80F3048
S1132B70002BFBD10DB05DF804FB00BFFB36000059
S1132B80C2072DE9F04704460BD54D4A138801339B
S1132B909BB21380FFF794FE4A4B1B680BB1FFF7FF
S1132BA0D5FEA30740F18A8000F01BFC4FF000091A
S1132BB005464E46FFF784FEC846424F3C680CB1BA
S1132BC063698BB10022404B012E1A7003D119F0B6
S1132BD0020F18BF1E70002C6CD0FFF7B7FE2846FA
S1132BE0BDE8F04700F003BC23465A693AB91A79A4
S1132BF02179914288BF1C469B68002BF5D1284659
S1132C0000F0F5FB2569DDB100F0ACFDA269A0EB95
S1132C1002094FEAE9734D4578EB030311DA23699E
S1132C201344A361E368B4F80690013613B1204657
S1132C302168984700F0D5FB0546FFF741FEBDE744
S1132C40A94600F0CEFB82462046FFF7F1FE50462F
S1132C5000F0CDFB2369002BE4D0B5EB09054FEA66
S1132C60E97363EB4303002B04DA40F23451174851
S1132C7000F0AFFBA38B33B1E28B13449BB2B3F5EB
S1132C807A7F0FD2E38300F0ACFB814629462046CD
S1132C90FFF730FEA369226948461344A36100F09C
S1132CA0A6FBBFE7A3F57A73E383A369013D013B68
S1132CB0A361E8E7022000F07FF890E7BDE8F08721
S1132CC0881200207C1200209A120020FF3C000091
S1132CD01FB500241C4B18689A880290D3F806008C
S1132CE09B7A00901948ADF80C208DF8043000F060
S1132CF081FC8DF8084000F033FD8DF80C0002A82B
S1132D00FFF7ACF8694601208DF80040FFF758F84A
S1132D104FF0B04240F2FF31936923F47F7323F004
S1132D20030393610A4B5961936A13F00803FBD1BF
S1132D3013620120FFF768F80C20FFF7BDFA0C209E
S1132D40FFF788FA04B010BD613D0000983B000015
S1132D500020005810B5044600F03CFB4FF0B04290
S1132D60936A1907FCD4136A116C5269520604D48D
S1132D70CA1A032A01D88B420ED1E21A022A98BF3A
S1132D80DC1CB4F1FF3F38BF013C4FF0B0431C647E
S1132D909A6942F040029A6100F020FB054A1378D8
S1132DA03BB14FF0B041CB6B43F00203CB63002344
S1132DB0137010BDC0120020820700F001030AD571
S1132DC00121084A43F0400311704FF0B041CA6B2F
S1132DD022F00302CA634FF0B0418A6922EA030376
S1132DE08B617047C0120020830742BF4022014B11
S1132DF05A6170470010005810B500F0F2FA4FF015
S1132E00B04304465B695A06074A03F0010003F025
S1132E10510348BF40F002005361FFF7B1FE204662
S1132E20BDE8104000F0E3BA0020005807B5064B97
S1132E3001A9187900F0D9FB00F092FC019B23FA58
S1132E4000F003B05DF804FBA03B00000A4B10B592
S1132E50D3F8403203F00303013B012B0BD800F0FD
S1132E60B9FA044601210220FFF710FB2046BDE811
S1132E70104000F0B3BA10BD0080005010B50446F5
S1132E80FDF7E8FB4FF47A729042B0FBF2F105D201
S1132E903621BDE810400C4800F09BBA0B4BB3FB45
S1132EA0F1F30B49884201D93C21F2E702FB04F01B
S1132EB0B0FBF3F0022806D9BDE810400323B0FBB1
S1132EC0F3F0FDF73DB910BD6C3D000040420F002A
S1132ED0E7CD9A3B53B94AB9002908BF00281CBF63
S1132EE04FF0FF314FF0FF3000F082B9ADF1080C24
S1132EF06DE904CE00F006F8DDF804E0DDE9022314
S1132F0004B070472DE9F04F099D0C46002B4DD1BC
S1132F108A420F4684469646B2FA82F360D94BB190
S1132F2002FA03FEC3F120029F4000FA03FC20FAD8
S1132F3002F217434FEA1E461FFA8EF44FEA1C4270
S1132F40B7FBF6F106FB117701FB04F042EA0742F6
S1132F50904208D91EEB020201F1FF3702D29042DF
S1132F6000F231813946121A1FFA8CFCB2FBF6F0DA
S1132F7006FB102200FB04F44CEA024C644508D919
S1132F801EEB0C0C00F1FF3202D2644500F21E81EC
S1132F90104640EA0140ACEB040C002125B12CFAA8
S1132FA003F30022C5E90032BDE8F08F8B4205D956
S1132FB00DB1C5E9000100210846F5E7B3FA83F134
S1132FC000294DD1A342C0F0F380904280F0F080FC
S1132FD0064623460846002DE6D0C5E90063E3E72C
S1132FE0002B40F0A3808A1A4FEA1E471FFA8EF680
S1132FF00121B2FBF7F407FB14204FEA1C4242EA1A
S1133000004206FB04F090420FD91EEB020204F1C9
S1133010FF382CBF4FF001094FF00009904203D94B
S1133020B9F1000F00F0CC804446121A1FFA8CFC50
S1133030B2FBF7F007FB102200FB06F64CEA024C49
S1133040664508D91EEB0C0C00F1FF3202D266452E
S113305000F2B3801046ACEB060C40EA04409DE756
S1133060C1F120068B4004FA01FE22FA06F720FA89
S113307006FCF4408A401F434EEA0C0300FA01FEAA
S11330804FEA17484FEA13491FFA87FCB4FBF8F0DC
S113309008FB104449EA044400FB0CF9A1450ED98D
S11330A03C1900F1FF3A2CBF4FF0010B4FF0000B1D
S11330B0A14503D9BBF1000F00F08B805046A4EB6F
S11330C009041FFA83F9B4FBF8F308FB134403FB68
S11330D00CFC49EA0444A44506D93C1903F1FF3821
S11330E001D2A4457BD8434643EA0040A4EB0C0438
S11330F0A0FB02984445CC46434602D306D1CE45B4
S113310004D20138B9EB020C68EB0703002D6CD034
S1133110BEEB0C0264EB030422FA01F304FA06F694
S1133120CC4000211E43C5E900643DE702FA03FEDA
S1133130C3F1200104FA03F200FA03FCCC404FEA85
S11331401E4720FA01F11FFA8EF6B4FBF7F00A438A
S113315007FB1044110C41EA044100FB06F48C42C5
S11331600ED91EEB010100F1FF382CBF4FF001090D
S11331704FF000098C4202D9B9F1000F2CD040461F
S1133180091B92B2B1FBF7F407FB141142EA0142A6
S113319004FB06F1914207D91EEB020204F1FF3849
S11331A001D291421ED84446521A44EA004120E713
S11331B0861A64EB030301200DE7F44402384AE75E
S11331C0023C724431E702397244CCE6F4440238DA
S11331D0DFE602383C4472E702387144D0E7023B30
S11331E03C4481E7023C7244DEE72946DCE600BF4A
S11331F0704700BF08B5064B044613B10021AFF376
S11332000080044B1B6803B19847204600F0F5F892
S1133210000000008412002070B50D4D00260D4CF6
S1133220641BA410A64209D10B4D00260B4C00F0E0
S1133230D7FA641BA410A64205D170BD55F8043B0F
S113324001369847EEE755F8043B01369847F2E714
S1133250C4120020C4120020C4120020C81200208E
S113326000F07CB800F07BB880B2FFF76DBC00F1D1
S11332706003DBB23F2B27D861B14B1E5A425A413F
S113328000F0F003C02B15D006D8A02B07D0B02B2C
S11332900BD070470422F3E7D02B10D070470023E3
S11332A000F00F011846FEF7D5BC00F00F01002313
S11332B00120F8E700F00F0100230220F3E700F0FB
S11332C00F0100230320EEE77047034603F0F002EA
S11332D0C02A084616D004D8A02A05D0B02A09D09E
S11332E07047D02A15D0704703F00F0140B1002079
S11332F0FCF7B0BF03F00F0108B10120F8E701208B
S1133300FCF7C8BF03F00F0108B10220F0E7022068
S1133310F6E703F00F0108B10320E9E70320EFE724
S113332008B500F032FAFFF79BFF0021A420FFF755
S11333309EFF00F037FAFFF795FF0121A420FFF765
S1133340C4FF4FF4C870FFF78FFF0021A420FFF7DC
S1133350BCFF4FF4C870FFF787FFEEE77047704774
S113336008B50120FDF700F82020FCF7FDFFBDE8BB
S113337008404020FCF7F8BF08B500F0C2F8FCF79D
S1133380E7FFBDE80840FCF7E9BF08B500F00AF81C
S1133390BDE80840FFF768BB704770477047704747
S11333A0704770470F207047FEE74AB1002310B5FD
S11333B050F8234041F8234001339342F8D110BD23
S11333C07047002070474FF4004070474FF47A7004
S11333D07047FEE7EFF3108072B6704700B962B62B
S11333E07047EFF31180302383F31188704780F323
S11333F011887047002303607047FEE7436803B1F8
S1133400184722207047436903B11847FF207047CB
S113341038B50D680C462B78022B0CD069792879C5
S1133420FDF74EF9B0FA80F0400928702046BDE857
S11334303840FCF74FBF38BD03681878704710B5A3
S113344004682378022B15D061792079FDF738F9C7
S1133450A279012A15D1003818BF01204FF6E07176
S1133460638840EA430363F03F039BB28B4202D17B
S11334702270638010BD4FF6DF729342F9D10022AF
S1133480F6E7002AF6D1B0FA80F040092070F1E79F
S113349003681A78022A03D100225A80FDF732B950
S11334A0704713B504682378022B10D0A379022B3C
S11334B00BD100216079FDF733FA0023627920797A
S11334C01146CDE90033FEF755FB0223237002B009
S11334D010BDD0E900031847036900681847034684
S11334E059789B7800780BB9FDF766B9FDF784B974
S11334F0034659789B7800780BB9FDF77DB9FDF741
S11335005BB908B51920FEF7BFFE28B11920FEF7F4
S1133510D3FE1920FEF79EFE1A20FEF7B5FE38B141
S11335201A20FEF7C9FEBDE808401A20FEF792BE35
S113353008BD08B5FDF7A0F8BDE808400021FDF777
S1133540B1BC0029CCBF01210021FDF7ABBC022195
S11335504FF42070FEF730B808B501210220FEF7C1
S1133560A7F9FFF7E6FFBDE80840FFF7F0BF38B55D
S11335700446FDF76FF80546FDF772FAC0F1020143
S11335802846FFF7DEFF01210020FEF7E5F91CB114
S1133590BDE83840FEF78AB838BD0120FEF720B9EF
S11335A07047704770B5054614460E46FFF712FF84
S11335B02B685C4034405C402C60BDE87040FFF7F1
S11335C00DBF4FF0B0435A6812B19A6A002AFAD17B
S11335D0704783695A06FCD5C16383699B06FCD591
S11335E0406AC0B2704700F00BB809B100F00AB8E5
S11335F0222070470121FEF71FBD0021FEF71CBDEC
S11336000020704770B506460D46FFF7EAFE0446F3
S11336101C2E45D8DFE806F00F18441D202344264D
S1133620292C44442F32443538443B443E444444DA
S1133630444444444100FCF7F3FF0026286020463C
S1133640FFF7D5FE304670BD4FF4C070FDF77AFC2D
S1133650F3E74FF42070F9E74FF44070F6E74FF4C6
S11336606070F3E74FF40070F0E74FF48060EDE72B
S11336704FF49060EAE74FF4C060E7E74FF4F0607E
S1133680E4E74FF4B060E1E74FF4D060DEE74FF4D5
S1133690E060DBE74FF4A060D8E74FF48070D5E733
S11336A000202126CAE7FEF7F1BC10B56FF0040430
S11336B0204605210134FEF70DFE402CF8D110BD43
S11336C010B5FFF787FE0446FEF774FE2046BDE8FA
S11336D01040FFF783BE012070474FF4C870FEF717
S11336E071BF7047002307B5684600938DF8043016
S11336F0FEF7D4F803B05DF804FB00230B707047A9
S1133700F0B51F46002387B00D46164604468DF8D3
S11337101730A8B1C3610DF11701FFF7DFF99DF868
S113372017207AB9BDF83430294602939DF8303019
S11337302046CDE900733346FFF736F907B0F0BDF4
S11337402220FBE70320F9E738B5FFF74AFE0546D8
S113375000F008F804462846FFF749FE204638BD25
S1133760002070474FF0B0439A6A1207FCD4186ADD
S1133770704782074FF0B04200F00103916948BFDF
S113378043F040030B439361704708B5FCF7B6FD63
S1133790FFF7F2FDFFF7F9FDFFF7FEFDBDE8084076
S11337A0FFF7FBBD08B5FFF7F9FDFFF7F8FDFFF7DD
S11337B0F7FDBDE80840FFF7F4BD02440346934219
S11337C000D1704703F8011BF9E700000000000076
S11337D000000000000000000000000000000000E5
S11337E0F8B500BFF8BC08BC9E467047F8B500BFEA
S11337F0F8BC08BC9E4670472F686F6D652F6D61DD
S11338007274696E2F53696D706C6963697479534E
S1133810747564696F2F53444B732F73696D706CA7
S113382069636974795F73646B2F2F706C6174665C
S11338306F726D2F656D6C69622F696E632F656D94
S11338405F6770696F2E6800FF011F00FF000F00A3
S1133850B0120020050700003F340000913400003E
S1133860A334000039340000BC12002039080000E1
S1133870DF340000F13400005D0800009D08000002
S11338802F686F6D652F6D617274696E2F53696D4A
S1133890706C696369747953747564696F2F5344E8
S11338A04B732F73696D706C69636974795F7364AA
S11338B06B2F68617264776172652F626F617264E5
S11338C02F7372632F736C5F626F6172645F636FD7
S11338D06E74726F6C5F6770696F2E630000000016
S11338E0050000000000000040420F000501000038
S11338F00000000000000000000000002F686F6D51
S1133900652F6D617274696E2F53696D706C696394
S113391069747953747564696F2F53444B732F73AF
S1133920696D706C69636974795F73646B2F706C13
S11339306174666F726D2F6472697665722F627539
S113394074746F6E2F7372632F736C5F73696D7011
S11339506C655F627574746F6E2E6300FF011F00E7
S1133960FF000F00FF011F00FF000F002F686F6DA5
S1133970652F6D617274696E2F53696D706C696324
S113398069747953747564696F2F53444B732F733F
S1133990696D706C69636974795F73646B2F706CA3
S11339A06174666F726D2F656D6C69622F737263DB
S11339B02F656D5F636D752E63002F686F6D652FC6
S11339C06D617274696E2F53696D706C696369748B
S11339D07953747564696F2F53444B732F73696DF6
S11339E0706C69636974795F73646B2F706C617454
S11339F0666F726D2F656D6C69622F7372632F65CC
S1133A006D5F656D752E63002F686F6D652F6D6139
S1133A107274696E2F53696D706C6963697479533C
S1133A20747564696F2F53444B732F73696D706C95
S1133A3069636974795F73646B2F2F706C6174664A
S1133A406F726D2F656D6C69622F696E632F656D82
S1133A505F6275732E68002F686F6D652F6D6172DC
S1133A6074696E2F53696D706C69636974795374EA
S1133A707564696F2F53444B732F73696D706C6950
S1133A80636974795F73646B2F706C6174666F72B1
S1133A906D2F656D6C69622F7372632F656D5F673F
S1133AA070696F2E6300FF011F00FF000F002F6875
S1133AB06F6D652F6D617274696E2F53696D706CD3
S1133AC0696369747953747564696F2F53444B73D4
S1133AD02F73696D706C69636974795F73646B2F9C
S1133AE0706C6174666F726D2F656D6C69622F7393
S1133AF072632F656D5F727463632E63002F686F4A
S1133B006D652F6D617274696E2F53696D706C6988
S1133B106369747953747564696F2F53444B732FBD
S1133B2073696D706C69636974795F73646B2F700A
S1133B306C6174666F726D2F656D6C69622F737240
S1133B40632F656D5F75736172742E6300000000EE
S1133B500126000004000000000000000001000035
S1133B60000000000B0000000B0000000200000039
S1133B700000202000000000030000008C8C3C00AA
S1133B800000000000000000000000000103040128
S1133B9001010903080000001E0000001A000000D3
S1133BA00000005812000000983B00002F686F6D61
S1133BB0652F6D617274696E2F53696D706C6963E2
S1133BC069747953747564696F2F53444B732F73FD
S1133BD0696D706C69636974795F73646B2F706C61
S1133BE06174666F726D2F736572766963652F6990
S1133BF06E746572727570745F6D616E6167657203
S1133C002F7372632F736C5F696E74657272757053
S1133C10745F6D616E616765725F636F72746578FE
S1133C206D2E63002F686F6D652F6D617274696E00
S1133C302F53696D706C6963697479537475646921
S1133C406F2F53444B732F73696D706C6963697480
S1133C50795F73646B2F706C6174666F726D2F7310
S1133C606572766963652F706F7765725F6D616EDB
S1133C70616765722F7372632F736C5F706F776502
S1133C80725F6D616E616765722E6300010410409E
S1133C902F686F6D652F6D617274696E2F53696D36
S1133CA0706C696369747953747564696F2F5344D4
S1133CB04B732F73696D706C69636974795F736496
S1133CC06B2F706C6174666F726D2F736572766999
S1133CD063652F706F7765725F6D616E6167657282
S1133CE02F7372632F736C5F706F7765725F6D6192
S1133CF06E616765725F68616C5F73322E63002F5B
S1133D00686F6D652F6D617274696E2F53696D7084
S1133D106C696369747953747564696F2F53444B88
S1133D20732F73696D706C69636974795F73646B05
S1133D302F706C6174666F726D2F73657276696330
S1133D40652F736C65657074696D65722F7372632A
S1133D502F736C5F736C65657074696D65722E6327
S1133D600001000000050002000003002F686F6DD1
S1133D70652F6D617274696E2F53696D706C696320
S1133D8069747953747564696F2F53444B732F733B
S1133D90696D706C69636974795F73646B2F706C9F
S1133DA06174666F726D2F736572766963652F75C2
S1133DB064656C61792F7372632F736C5F756465CE
S10B3DC06C61792E6300000020
S10B3DC810C4FF7F010000009C
S10F3DD0DC3D0000A01200200B000000ED
S1133DDCC0EA2101C0EA21010080000000F0490280
S1133DEC0000000001030200FFFFFFFF00040101BB
S10F3DFC01000000B50100008D01000072
S9030541B6
